S010000047727570706534342E7372656339
S11300000C943E000C945B000C945B000C945B001D
S11300100C945B000C945B000C945B000C945B00F0
S11300200C945B000C945B000C945B000C945B00E0
S11300300C945B000C945B000C945B000C945B00D0
S11300400C945B000C945B000C945B000C945B00C0
S11300500C945B000C945B000C945B000C945B00B0
S11300600C945B000C945B000C945B000C945B00A0
S11300706364696E6F70737578585B0011241FBEDA
S1130080CFEFD4E0DEBFCDBF11E0A0E0B1E0EAEAFB
S1130090FBE002C005900D92AA30B107D9F721E028
S11300A0AAE0B1E001C01D92A431B207E1F70E94B9
S11300B06C000C94D3050C9400009CBF80B988E1BB
S11300C081B98EE88CBF0895159BFECF83B908953E
S11300D0179BFECF83B10895CF93DF931F92CDB7C3
S11300E0DEB78FE190E00E945D0068E670E084E690
S11300F090E00E9499008FEF8BBBCE0101969F93F5
S11301008F9386E091E09F938F930E94EB00898107
S113011090E00E94E4002FEF80E792E021508040BD
S11301209040E1F700C000000F900F900F900F90E7
S1130130E2CF0F931F93CF93DF93009731F46115B0
S1130140710519F480E090E03AC08B01EC016EE097
S113015070E081E090E00E94AE03FC01892B91F3F2
S113016080E883830115110571F01387028781E804
S1130170838380910A0190910B01892B21F4F093E0
S11301800B01E0930A012097C9F0D187C0878381CE
S11301908260838380910C0190910D01892B71F40D
S11301A0F0930D01E0930C0180910E0190910F01E9
S11301B0892B21F4F0930F01E0930E01CF01DF911D
S11301C0CF911F910F91089560910C0170910D01D1
S11301D00E9444050895A0E0B0E0E1EFF0E00C9443
S11301E0AC05AE014B5F5F4FFA0161917191AF01B4
S11301F080910A0190910B010E949D02E2E00C940F
S1130200C80520FD09C0FC0123FD05C022FF02C072
S11302107383628351834083089544FD17C046FD70
S113022017C0AB01BC01DA01FB01AA0FBB1FEE1F13
S1130230FF1F1094D1F74A0F5B1F6E1F7F1FCB0166
S1130240BA01660F771F881F991F09C033E001C0E8
S113025034E0660F771F881F991F3150D1F7620F62
S1130260711D811D911D08950F931F93CF93DF93EB
S11302708C01C8010E940605EC0197FD08C00E948C
S1130280EB04892BB1F7B801CE010E948005CE01A1
S1130290DF91CF911F910F9108958F929F92AF920A
S11302A0BF92EF92FF920F931F93CF93DF938C0132
S11302B0D62F7A01B22E0E9406059C0133272B32D9
S11302C0310531F02D32310561F48B2D8068B82E63
S11302D0D15011F480E068C0C8010E94060597FD62
S11302E0F9CFCB2DCD7F2B2D207309F58033F9F475
S11302F0AA24AA94AD0E09F443C0C8010E940605BD
S113030097FD3EC09C012F7D33272835310549F4E4
S1130310C264D250A9F1C8010E94060597FF07C024
S11303202FC0B6FE02C0C26001C0C261DA2D812CAA
S1130330912C540120ED280F283080F0C4FF04C014
S1130340B8010E94800519C02A3040F0C6FFF8CFDA
S11303502F7D3FEE320F363098F727504C2FC501D2
S1130360B4010E940D014B015C01C260D15059F0EF
S1130370C8010E94060597FFDDCFC1FD04C0AACFC6
S1130380812C912C5401C7FF08C0B094A094909480
S11303908094811C911CA11CB11C2C2FB501A401BB
S11303A0C7010E94010181E0DF91CF911F910F915C
S11303B0FF90EF90BF90AF909F908F900895A0E230
S11303C0B0E0E5EEF1E00C949F055C01962E7A0115
S11303D0F9018E010F5F1F4F680180E2D8011D9261
S11303E08A95E9F7D50113968C9080E090E0612C12
S11303F0712C30E061E070E083FC259183FE219153
S11304008F01522E211103C080E090E092C02E355E
S113041011F4009751F1432F50E0481759073CF469
S11304202D3559F12D3219F4772009F103C07720C5
S113043009F46AC0452D469546954695D601A40F04
S1130440B11D452D47708B0102C0000F111F4A9545
S1130450E2F7A8015C91452B4C93651459F05614AE
S113046010F45394E7CF5A94E5CF31E004C07724D5
S1130470739401C0712C0196BFCF772019F08E813F
S113048080628E83311103C08824839417C0F601DF
S11304909E012F5D3F4F8081809581932E173F07EA
S11304A0D1F7F2CFE114F10429F0D7018C93F701CD
S11304B031967F019A94812C9920F9F0C5010E940C
S11304C0060597FD18C0FC01FF2723E0F595E79585
S11304D02A95E1F7EC0DFD1D208130E0AC01477059
S11304E0552702C0359527954A95E2F720FDDACFC6
S11304F0B5010E948005811087CFE114F10411F049
S1130500D7011C92C80115C0422F469546954695C1
S1130510D601A40FB11D422F47708B0102C0000FFA
S1130520111F4A95E2F7A8015C91452B4C93622E6A
S1130530A2CFA096EFE00C94BB05A0E0B0E0E3EA04
S1130540F2E00C949F056C01EB015A01FC01178247
S11305501682512CF601E380FE01E3FC8591E3FE53
S11305608191182FEF01882309F4EEC090E00E94D6
S1130570EB04892B21F0C6010E943401EBCF153224
S113058041F4FE01E3FC1591E3FE1191EF011532F4
S113059081F4C6010E94060597FDD4C0412F50E0A6
S11305A09C01332724173507A9F2B6010E94800560
S11305B0CBC01A3239F4E3FC1591E3FE1191EF013B
S11305C001E001C000E0F12C20ED210F2A3080F47D
S11305D002606F2D70E080E090E040E20E940D0127
S11305E0F62EFE01E3FC1591E3FE1191EF01ECCF31
S11305F001FF03C0F11003C0A7C0FF24FA9418360A
S113060019F01C3651F010C0FE01E3FC1591E3FE15
S11306101191EF01183641F408600460FE01E3FC17
S11306201591E3FE1191EF01112309F48DC0612F9F
S113063070E080E790E00E94F404892B09F484C000
S113064000FD07C0F50180809180C50102965C0120
S113065002C0812C912C1E3651F4F601468157813B
S113066060E070E0202FC4010E94010173CF1336B3
S1130670A9F401FD02C0FF24F394C6010E940605FB
S113068097FD60C08114910429F0F4018083C401B2
S113069001964C01FA94F110F0CF50C01B3559F477
S11306A09E01A4016F2DC6010E94DF01EC01892B7C
S11306B009F044C03EC0C6010E94340197FD42C007
S11306C01F3661F128F4143639F1193651F128C076
S11306D0133771F0153701F123C08114910429F007
S11306E0F4016082C40101964C01FA94FF2071F078
S11306F0C6010E9406053C0197FD08C00E94EB0458
S1130700892B59F3B601C3010E9480058114910419
S1130710A9F0F401108212C0006203C0006101C09C
S11307200064202FA4016F2DC6010E944D01811188
S113073005C0F6018381807329F406C000FD0ACF49
S1130740539408CF552019F0852D90E002C08FEF07
S11307509FEFCDB7DEB7EFE00C94BB050F931F936B
S1130760CF93DF93869F8001879F100D969F100D76
S11307701124C8010E94CA03EC01009729F0A801C2
S113078060E070E00E94FF04CE01DF91CF911F91E1
S11307900F9108950F931F93CF93DF9382309105A8
S11307A010F482E090E0E0911201F091130120E056
S11307B030E0A0E0B0E0309719F14081518102812E
S11307C0138148175907C8F08417950769F41097DF
S11307D031F012960C93129713961C9327C0009332
S11307E012011093130122C02115310519F042178B
S11307F0530718F49A01BD01EF01DF01F801DBCFC3
S113080021153105F9F0281B390B2430310580F40A
S11308108A819B816115710521F0FB019383828399
S113082004C09093130180931201FE01329644C0D8
S1130830FE01E20FF31F8193919322503109398312
S113084028833AC02091100130911101232B41F4E7
S11308502091020130910301309311012093100182
S113086020910001309101012115310541F42DB78A
S11308703EB74091040150910501241B350BE091D2
S11308801001F0911101E217F307A0F42E1B3F0BA6
S11308902817390778F0AC014E5F5F4F24173507EE
S11308A048F04E0F5F1F5093110140931001819344
S11308B0919302C0E0E0F0E0CF01DF91CF911F916E
S11308C00F910895CF93DF93009709F481C0FC0141
S11308D0329713821282A0911201B09113011097E2
S11308E081F420813181820F931F20911001309176
S11308F011012817390751F5F0931101E093100104
S113090067C0ED0120E030E0CE17DF0740F44A81F4
S11309105B819E0141155105F1F0EA01F5CFD383C6
S1130920C28340815181840F951FC817D90759F498
S113093088819981840F951F0296918380838A818F
S11309409B81938382832115310529F4F09313014C
S1130950E09312013DC0E901FB83EA834991599177
S1130960C40FD51FEC17FD0761F480819181840FBA
S1130970951F0296E90199838883828193819B83E1
S11309808A83E0E0F0E012968D919C911397009792
S113099019F0FD01DC01F7CF8D919C9111979D0118
S11309A02E5F3F4F820F931F209110013091110150
S11309B02817390769F4309729F41092130110921B
S11309C0120102C013821282B0931101A09310018C
S11309D0DF91CF91089591110C949905803219F00B
S11309E089508550C8F70895FC010590061621F03A
S11309F00020D9F7C00108953197CF010895DC0193
S1130A0001C06D9341505040E0F70895CF93DF93B8
S1130A10EC012B8120FF33C026FF0AC02F7B2B83E0
S1130A208E819F8101969F838E838A8190E029C065
S1130A3022FF0FC0E881F9818081082E000C990BF8
S1130A40009719F420622B831AC03196F983E88346
S1130A500EC0EA85FB85099597FF09C02B81019695
S1130A6011F080E201C080E1822B8B8308C02E81CB
S1130A703F812F5F3F4F3F832E83992702C08FEF23
S1130A809FEFDF91CF9108950F931F93CF93DF933F
S1130A90FB01238121FD03C08FEF9FEF2CC022FFB8
S1130AA016C046815781248135814217530744F487
S1130AB0A081B1819D012F5F3F4F318320838C93AF
S1130AC0268137812F5F3F4F3783268314C08B01E4
S1130AD0EC01FB010084F185E02D0995892BE1F6F9
S1130AE0D80116968D919C911797019617969C9311
S1130AF08E931697CE01DF91CF911F910F91089598
S1130B00FB01238120FF12C026FD10C08F3F3FEF61
S1130B10930761F082832F7D2064238326813781AC
S1130B202150310937832683992708958FEF9FEF4A
S1130B3008959927882708952F923F924F925F92A4
S1130B406F927F928F929F92AF92BF92CF92DF92D9
S1130B50EF92FF920F931F93CF93DF93CDB7DEB73E
S1130B60CA1BDB0B0FB6F894DEBF0FBECDBF0994D2
S1130B702A88398848885F846E847D848C849B8429
S1130B80AA84B984C884DF80EE80FD800C811B8137
S1130B90AA81B981CE0FD11D0FB6F894DEBF0FBE66
S10D0BA0CDBFED010895F894FFCFD6
S10D0BAA0000140120002563000080
S9030000FC
