:100000000C9438000C94D7010C94FD010C9423023D
:100010000C9455000C9455000C9455000C9455000C
:100020000C9455000C9455000C9455000C945500FC
:100030000C9455000C9455000C9455000C945500EC
:100040000C9455000C9455000C9455000C945500DC
:100050000C9455000C9455000C9455000C945500CC
:100060000C9455000C9455000C9455000C945500BC
:1000700011241FBECFEFD4E0DEBFCDBF11E0A0E062
:10008000B1E0E2E8F1E102C005900D92A03DB107B8
:10009000D9F722E0A0EDB1E001C01D92A736B2076A
:1000A000E1F70E949F020C94BF080C94000081B3FA
:1000B000806281BB8FB580658FBD8EB589608EBD36
:1000C00081E090E09BBD8ABD08958FEF809300147E
:1000D00084E18A95F1F780E090E00BC02091001454
:1000E000FC01EE0FFF1FE452FE4F30E0318320830E
:1000F00001968430910594F308950E946500ECED1B
:10010000F1E0808191819093D3018093D20182812B
:1001100093819093D1018093D0010895CF93C82FFC
:1001200088B38F7E88BB83E090E00E9418048C2FF8
:1001300090E00E9418040E941C0498B3906198BB40
:10014000CF910895CF93DF93D82FC62F88B38F7E9A
:1001500088BB82E090E00E9418048D2F90E00E94FE
:1001600018048C2F90E00E94180488B3806188BB2B
:10017000DF91CF91089598B39F7E98BB876890E0F8
:100180000E94180488B3806188BB08951F93CF93A1
:10019000DF93182FD62FC42F88B38F7E88BB85E0BE
:1001A00090E00E941804812F90E00E9418048D2F87
:1001B00090E00E9418048C2F90E00E94180488B3ED
:1001C000806188BBDF91CF911F91089588B38F7EA6
:1001D00088BB80EC90E00E94180488B3806188BBE3
:1001E00008950E940E040E94E6008EE00E948E0098
:1001F000807E803831F086E091E00E94830481E0C7
:10020000089542E86FEF8AE20E94C60049EF6FEF5F
:1002100089E20E94C60047E067EC88E20E94C600BF
:1002200040E260E680E60E94C60041E061E08BE2C9
:100230000E94C60040E460EE8FE00E94C60080E0AD
:100240000895FF920F931F93CF93DF93CDB7DEB73F
:100250002A970FB6F894DEBF0FBECDBF09831A836D
:100260002B833C834D835E836F83788789879A874E
:1002700080E30E948E0083FDFBCF198180E2189FEE
:10028000B001112482E30E94A200612F6695669559
:10029000669581E30E94A200FA806F2D85E30E949B
:1002A000A20000E010E013C0E3E0F0E0EC0FFD1F5F
:1002B000E00FF11F608186E3800F0E94A20083ECB3
:1002C00099E00197F1F700C000000F5F1F4F8F2DDD
:1002D00090E00817190744F32A960FB6F894DEBF8A
:1002E0000FBECDBFDF91CF911F910F91FF90089569
:1002F000FF920F931F93CF93DF938C0183EC99E0D0
:100300000197F1F700C0000085E60E948E008F7013
:10031000F82EF801818383EC99E00197F1F700C092
:10032000000081E60E948E00C82FD0E0CC0FDD1FB8
:10033000CC0FDD1FCC0FDD1F82E60E948E00829560
:1003400086958770C82BF801C083C0E0D0E00FC04D
:100350008C2F8A590E948E00F801EC0FFD1F8283BA
:1003600083EC99E00197F1F700C0000021968F2DF2
:1003700090E0C817D90764F340E061E08CE20E9486
:10038000C600C801DF91CF911F910F91FF90089592
:100390009CBF80B988E181B98EE88CBF0895159B18
:1003A000FECF83B90895179BFECF83B108951F92A6
:1003B0000F920FB60F9211242F933F934F935F9399
:1003C0006F937F938F939F93AF93BF93EF93FF931D
:1003D0008AE391E00E948304FF91EF91BF91AF9176
:1003E0009F918F917F916F915F914F913F912F914D
:1003F0000F900FBE0F901F9018951F920F920FB67F
:100400000F9211242F933F934F935F936F937F939A
:100410008F939F93AF93BF93EF93FF938AE491E001
:100420000E948304FF91EF91BF91AF919F918F91B3
:100430007F916F915F914F913F912F910F900FBEE0
:100440000F901F9018951F920F920FB60F921124C4
:10045000EF92FF920F931F932F933F934F935F93CE
:100460006F937F938F939F93AF93BF93EF93FF937C
:10047000CF93DF93CDB7DEB72A97DEBFCDBF87EA34
:1004800091E60197F1F700C00000CE0101960E94AD
:10049000780189819FEF980F9D31A0F59A81E92E0F
:1004A000F12C1F928F931F929F9389E591E09F9368
:1004B0008F930E946D040F900F900F900F900F90EC
:1004C0000F9000E010E01BC0E3E0F0E0EC0FFD1F38
:1004D000E00FF11F80811F928F938DE691E09F9333
:1004E0008F930E946D0483EC99E00197F1F700C0AF
:1004F00000000F5F1F4F0F900F900F900F900E1581
:100500001F0514F32A960FB6F894DEBF0FBECDBFB9
:10051000DF91CF91FF91EF91BF91AF919F918F911B
:100520007F916F915F914F913F912F911F910F910B
:10053000FF90EF900F900FBE0F901F901895CF93E4
:10054000DF93CDB7DEB72A970FB6F894DEBF0FBEA4
:10055000CDBF8FE190E00E94C80163ED71E08FECA8
:1005600091E00E9422040E945700F89420B381E099
:1005700090E0AC0102C0440F551F2A95E2F79A01A2
:100580002095309540B302C0880F991F4A95E2F735
:10059000822B932B91B3892381BB86B18E7F86B941
:1005A00087B1816087B985B7806885BF85B78F605F
:1005B00085BF86B786BF8BB7806E8BBF80B78860DC
:1005C00080BF78940E947D000E946D030E94B30357
:1005D0008FE0E0ECF1E0A5EEB1E001900D928A959C
:1005E000E1F78AE0EAE7F1E0A4EFB1E001900D92D3
:1005F0008A95E1F78AE0E4E8F1E0A3E0B2E0019057
:100600000D928A95E1F78AE0EEE8F1E0A2E1B2E02E
:1006100001900D928A95E1F78AE0E8E9F1E0A1E224
:10062000B2E001900D928A95E1F78AE0E2EAF1E00A
:10063000A0E3B2E001900D928A95E1F78AE0ECEA3E
:10064000F1E0AFE3B2E001900D928A95E1F78AE024
:10065000E6EBF1E0AEE4B2E001900D928A95E1F7AD
:1006600081E08093E4010E94F10089E1898386E0C2
:100670008A8380E090E00FC0E3E0F0E0EC0FFD1F24
:10068000E80FF91F382F330F232F220F220F230FCC
:10069000280F208301968630910574F3E12CF12C0C
:1006A0005FEFE51AF50AEB8287EA91E60197F1F729
:1006B00000C0000009811A812B813C814D815E813F
:1006C0006F81788589859A850E94210181E00E9449
:1006D000BB00E6CF8093001008958EEA0E946A0363
:1006E00081EA0E946A038AED0E946A0382E10E9405
:1006F0006A0388EC0E946A0388EA0E946A038FE317
:100700000E946A0385ED0E946A0380E80E946A03E2
:1007100081E80E946A0380E50E946A0389ED0E94D5
:100720006A0381E20E946A0380E20E946A0382E017
:100730000E946A038BED0E946A0380E30E946A03B1
:100740008DEA0E946A0380E00E946A0384EA0E94A4
:100750006A0386EA0E946A038FEA0E946A03089588
:10076000809300120895CF9380EB0E946A03C0E04B
:1007700004C080E00E94B003CF5FCC23D4F781EBAC
:100780000E946A03C0E004C080E00E94B003CF5F13
:10079000CC23D4F782EB0E946A03C0E004C080E05F
:1007A0000E94B003CF5FCC23D4F783EB0E946A038F
:1007B000C0E004C080E00E94B003CF5FCC23D4F738
:1007C00084EB0E946A03C0E004C080E00E94B00392
:1007D000CF5FCC23D4F785EB0E946A03C0E004C04E
:1007E00080E00E94B003CF5FCC23D4F786EB0E9459
:1007F0006A03C0E004C080E00E94B003CF5FCC2356
:10080000D4F787EB0E946A03C0E004C080E00E9436
:10081000B003CF5FCC23D4F7CF91089587B3806B1B
:1008200087BB8DB181658DB988B3806188BB089520
:100830008FB9779BFECF08958FEF8FB9779BFECF4F
:100840008FB108950F931F93CF93DF93009731F4E7
:100850006115710519F480E090E03AC08B01EC015C
:100860006EE070E081E090E00E949406FC01892B2C
:1008700091F380E883830115110571F013870287D6
:1008800081E8838380915D0290915E02892B21F43F
:10089000F0935E02E0935D022097C9F0D187C08794
:1008A00083818260838380915F0290916002892BB3
:1008B00071F4F0936002E0935F0280916102909185
:1008C0006202892B21F4F0936202E0936102CF016E
:1008D000DF91CF911F910F910895A0E0B0E0E3E781
:1008E000F4E00C949808AE014B5F5F4FFA01619100
:1008F0007191AF0180915F02909160020E94B304F8
:10090000E2E00C94B4080F931F93CF93DF93E09130
:100910005F02F0916002238121FF1BC08C01D0E0B7
:10092000C0E0F80181918F0160915F0270916002D7
:10093000DB011896ED91FC911997882331F0099508
:10094000892B79F3DFEFCFEFECCF8AE00995892B84
:1009500019F08FEF9FEF02C08D2F9C2FDF91CF9169
:100960001F910F910895ABE0B0E0E9EBF4E00C9437
:1009700088086C017B018A01FC0117821682838141
:1009800081FFCCC1CE0101963C01F6019381F701B4
:1009900093FD859193FF81917F01882309F4BAC16A
:1009A000853239F493FD859193FF81917F018532E2
:1009B00029F4B60190E00E94EE07E7CF912C212C9C
:1009C000312CFFE1F315D8F08B3279F038F4803216
:1009D00079F08332A1F4232D20611DC08D3261F0A6
:1009E000803369F4232D216016C0832D8260382E58
:1009F000E32DE4603E2E2AC0F32DF8601DC037FCC5
:100A00002DC020ED280F2A3040F08E32B9F436FC8C
:100A100081C1232D2064322E19C036FE06C08AE023
:100A2000989E200D1124922E11C0EAE02E9E200DDA
:100A30001124222EF32DF0623F2E08C08C3621F4B3
:100A4000832D8068382E02C0883641F4F70193FD6B
:100A5000859193FF81917F018111B3CF982F9F7D65
:100A60009554933028F40C5F1F4F9FE399830DC07A
:100A7000833631F0833771F0833509F059C021C0D6
:100A8000F801808189830E5F1F4F88248394912C05
:100A9000530113C02801F2E04F0E511CF801A08051
:100AA000B18036FE03C0692D70E002C06FEF7FEFAA
:100AB000C5010E94E3074C018201F32DFF773F2E11
:100AC00016C0280122E0420E511CF801A080B1801E
:100AD00036FE03C0692D70E002C06FEF7FEFC501E5
:100AE0000E94D1074C01F32DF0683F2E820133FCA8
:100AF0001BC0822D90E088169906B0F4B60180E202
:100B000090E00E94EE072A94F4CFF50137FC85911E
:100B100037FE81915F01B60190E00E94EE0721103F
:100B20002A9421E0821A91088114910471F7E8C097
:100B3000843611F0893641F5F80137FE07C060812F
:100B40007181828193810C5F1F4F08C06081718128
:100B5000072E000C880B990B0E5F1F4FF32DFF76AD
:100B60003F2E97FF09C090958095709561957F4FB6
:100B70008F4F9F4FF0683F2E2AE030E0A3010E9484
:100B80002A08882E861845C0853731F4232D2F7EFC
:100B9000B22E2AE030E025C0932D997FB92E8F36F2
:100BA000C1F018F4883579F0B5C0803719F088376E
:100BB00021F0B0C0E92FE061BE2EB4FE0DC0FB2DC8
:100BC000F460BF2E09C034FE0AC0292F2660B22E61
:100BD00006C028E030E005C020E130E002C020E19E
:100BE00032E0F801B7FE07C0608171818281938194
:100BF0000C5F1F4F06C06081718180E090E00E5F46
:100C00001F4FA3010E942A08882E8618FB2DFF770C
:100C10003F2E36FE0DC0232D2E7FA22E891458F4B0
:100C200034FE0BC032FC09C0832D8E7EA82E05C079
:100C3000B82CA32C03C0B82C01C0B92CA4FE0FC043
:100C4000FE01E80DF11D8081803321F49A2D997EFB
:100C5000A92E09C0A2FE06C0B394B39404C08A2D85
:100C6000867809F0B394A3FC11C0A0FE06C0B214AC
:100C700088F4280C922C9B180EC0B21460F4B601B4
:100C800080E290E00E94EE07B394F7CFB21418F41C
:100C90002B1802C0982C212CA4FE10C0B60180E3B2
:100CA00090E00E94EE07A2FE17C0A1FC03C088E7F7
:100CB00090E002C088E590E0B6010CC08A2D8678ED
:100CC00059F0A1FE02C08BE201C080E2A7FC8DE2D8
:100CD000B60190E00E94EE07891438F4B60180E373
:100CE00090E00E94EE079A94F7CF8A94F301E80D02
:100CF000F11D8081B60190E00E94EE078110F5CFD2
:100D0000222009F442CEB60180E290E00E94EE0774
:100D10002A94F6CFF6018681978102C08FEF9FEF6C
:100D20002B96E2E10C94A4080F931F93CF93DF93CB
:100D3000869F8001879F100D969F100D1124C8017A
:100D40000E94B006EC01009729F0A80160E070E075
:100D50000E94DC07CE01DF91CF911F910F91089582
:100D60000F931F93CF93DF938230910510F482E0AD
:100D700090E0E0916502F091660220E030E0A0E0B2
:100D8000B0E0309719F140815181028113814817F9
:100D90005907C8F08417950769F4109731F0129637
:100DA0000C93129713961C9327C00093650210931F
:100DB000660222C02115310519F04217530718F4B5
:100DC0009A01BD01EF01DF01F801DBCF21153105EB
:100DD000F9F0281B390B2430310580F48A819B817E
:100DE0006115710521F0FB019383828304C0909308
:100DF000660280936502FE01329644C0FE01E20F56
:100E0000F31F8193919322503109398328833AC08B
:100E10002091630230916402232B41F4209102015E
:100E2000309103013093640220936302209100010A
:100E3000309101012115310541F42DB73EB74091A4
:100E4000040150910501241B350BE0916302F091E0
:100E50006402E217F307A0F42E1B3F0B2817390793
:100E600078F0AC014E5F5F4F2417350748F04E0F06
:100E70005F1F50936402409363028193919302C079
:100E8000E0E0F0E0CF01DF91CF911F910F91089545
:100E9000CF93DF93009709F481C0FC01329713824E
:100EA0001282A0916502B0916602109781F42081B0
:100EB0003181820F931F20916302309164022817C1
:100EC000390751F5F0936402E093630267C0ED01C6
:100ED00020E030E0CE17DF0740F44A815B819E01BD
:100EE00041155105F1F0EA01F5CFD383C28340816A
:100EF0005181840F951FC817D90759F488819981AA
:100F0000840F951F0296918380838A819B819383AE
:100F100082832115310529F4F0936602E09365027E
:100F20003DC0E901FB83EA8349915991C40FD51F64
:100F3000EC17FD0761F480819181840F951F029663
:100F4000E90199838883828193819B838A83E0E08E
:100F5000F0E012968D919C911397009719F0FD0186
:100F6000DC01F7CF8D919C9111979D012E5F3F4F32
:100F7000820F931F20916302309164022817390772
:100F800069F4309729F4109266021092650202C04B
:100F900013821282B0936402A0936302DF91CF9117
:100FA0000895FC010590615070400110D8F78095BC
:100FB00090958E0F9F1F0895DC0101C06D934150E5
:100FC0005040E0F70895FC0161507040019001101D
:100FD000D8F7809590958E0F9F1F08950F931F93BC
:100FE000CF93DF93FB01238121FD03C08FEF9FEFA0
:100FF0002CC022FF16C046815781248135814217BB
:10100000530744F4A081B1819D012F5F3F4F31838D
:1010100020838C93268137812F5F3F4F3783268330
:1010200014C08B01EC01FB010084F185E02D0995D2
:10103000892BE1F6D80116968D919C911797019610
:1010400017969C938E931697CE01DF91CF911F91A7
:101050000F910895FA01AA27283051F1203181F12A
:10106000E8946F936E7F6E5F7F4F8F4F9F4FAF4FB0
:10107000B1E03ED0B4E03CD0670F781F891F9A1FC3
:10108000A11D680F791F8A1F911DA11D6A0F711D77
:10109000811D911DA11D20D009F468943F912AE083
:1010A000269F11243019305D3193DEF6CF0108956B
:1010B000462F4770405D4193B3E00FD0C9F7F6CF9C
:1010C000462F4F70405D4A3318F0495D31FD405264
:1010D000419302D0A9F7EACFB4E0A69597958795FA
:1010E00077956795BA95C9F70097610571050895D9
:1010F0009B01AC010A2E0694579547953795279585
:10110000BA95C9F7620F731F841F951FA01D08951C
:101110002F923F924F925F926F927F928F929F9207
:10112000AF92BF92CF92DF92EF92FF920F931F93F5
:10113000CF93DF93CDB7DEB7CA1BDB0B0FB6F894A6
:10114000DEBF0FBECDBF09942A88398848885F84E6
:101150006E847D848C849B84AA84B984C884DF8057
:10116000EE80FD800C811B81AA81B981CE0FD11D3B
:101170000FB6F894DEBF0FBECDBFED010895F89411
:02118000FFCF9F
:10118200000067022000204D43503235313520697E
:1011920073204E4F5420696E20636F6E66696775C7
:1011A200726174696F6E206D6F646520616674652B
:1011B200722072657365742021000D0A5269676896
:1011C2007420627574746F6E0D000D0A4C6566743E
:1011D20020627574746F6E0D006C656E3A2025691D
:1011E2002C2069643A202569200D200A00444154CC
:1011F200413A202569200D200A00656C656D656EF7
:1012020074203100656C656D656E74203200656C0A
:10121200656D656E74203300656C656D656E742056
:101222003400656C656D656E74203500656C656DA6
:10123200656E74203600656C656D656E74203700CE
:101242002D2D2D2D2D4D454E552D2D2D2D2D0000A5
:00000001FF
