S010000047727570706534342E7372656339
S11300000C9438000C94D2010C94F8010C941E0248
S11300100C9455000C9455000C9455000C94550008
S11300200C9455000C9455000C9455000C945500F8
S11300300C9455000C9455000C9455000C945500E8
S11300400C9455000C9455000C9455000C945500D8
S11300500C9455000C9455000C9455000C945500C8
S11300600C9455000C9455000C9455000C945500B8
S113007011241FBECFEFD4E0DEBFCDBF11E0A0E05E
S1130080B1E0EEE5F1E102C005900D92A63DB107A5
S1130090D9F722E0A6EDB1E001C01D92AD36B2075A
S11300A0E1F70E949A020C94AD080C94000081B30D
S11300B0806281BB8FB580658FBD8EB589608EBD32
S11300C081E090E09BBD8ABD08958FEF809300147A
S11300D084E18A95F1F780E090E00BC02091001450
S11300E0FC01EE0FFF1FEE51FE4F30E03183208301
S11300F001968430910594F308950E946500E2EE20
S1130100F1E0808191819093D9018093D80182811B
S113011093819093D7018093D60108950F931F93F1
S1130120CF93DF930E946500E2EEF1E0008111813C
S1130130C281D381DD27DF93CF9386E091E09F9343
S11301408F930E945B04C80199276091D801709134
S1130150D9010F900F900F900F9068177907B4F49E
S11301609C01261B370B44E6429FC001439F900D20
S113017011242FEF30E0A901461B570BBA010E944E
S1130180E8037093DB016093DA010FC09C01261B26
S1130190370B44E6429FC001439F900D11240E94F7
S11301A0E8037093DB016093DA016091D6017091EA
S11301B0D7016C177D07ACF4C61BD70B24E62C9F24
S11301C0C0012D9F900D11242FEF30E0A901461B93
S11301D0570BBA010E94E8037093DD016093DC01C0
S11301E00EC0C61BD70B24E62C9FC0012D9F900D7B
S11301F011240E94E8037093DD016093DC01DF9118
S1130200CF911F910F910895CF93C82F88B38F7EFC
S113021088BB83E090E00E94DE038C2F90E00E9474
S1130220DE030E94E20398B3906198BBCF910895D6
S11302301F93CF93DF93182FD62FC42F88B38F7EAD
S113024088BB85E090E00E94DE03812F90E00E944D
S1130250DE038D2F90E00E94DE038C2F90E00E943D
S1130260DE0388B3806188BBDF91CF911F9108952D
S113027088B38F7E88BB80EC90E00E94DE0388B355
S1130280806188BB08950E94D4030E9438018EE0E7
S11302900E940401807E803831F08CE091E00E945D
S11302A0710481E0089543E86FEF8AE20E94180127
S11302B049EF6FEF89E20E94180147E067EC88E29A
S11302C00E94180140E260E680E60E94180141E0C5
S11302D061E08BE20E94180140E060EE8FE00E9432
S11302E0180180E00895FF920F931F93CF93DF933B
S11302F08C0183EC99E00197F1F700C0000085E6DA
S11303000E9404018F70F82EF801818383EC99E038
S11303100197F1F700C0000081E60E940401C82F94
S1130320D0E0CC0FDD1FCC0FDD1FCC0FDD1F82E62C
S11303300E940401829586958770C82BF801C083BA
S1130340C0E0D0E00FC08C2F8A590E940401F8014C
S1130350EC0FFD1F828383EC99E00197F1F700C055
S1130360000021968F2D90E0C817D90764F340E070
S113037061E08CE20E941801C801DF91CF911F91C6
S11303800F91FF9008959CBF80B988E181B98EE8F0
S11303908CBF0895159BFECF83B90895179BFECF9C
S11303A083B108951F920F920FB60F9211242F93C9
S11303B03F934F935F936F937F938F939F93AF93E9
S11303C0BF93EF93FF9380E491E00E947104FF9147
S11303D0EF91BF91AF919F918F917F916F915F91B9
S11303E04F913F912F910F900FBE0F901F90189532
S11303F01F920F920FB60F9211242F933F934F9396
S11304005F936F937F938F939F93AF93BF93EF9378
S1130410FF9380E591E00E947104FF91EF91BF91F9
S1130420AF919F918F917F916F915F914F913F9188
S11304302F910F900FBE0F901F9018951F920F923F
S11304400FB60F921124EF92FF920F931F932F93E5
S11304503F934F935F936F937F938F939F93AF9348
S1130460BF93EF93FF93CF93DF93CDB7DEB72A9774
S1130470DEBFCDBF87EA91E60197F1F700C0000027
S1130480CE0101960E94730189819FEF980F9E31DE
S1130490A0F59A81E92EF12C1F928F931F929F93BE
S11304A08FE591E09F938F930E945B040F900F90D0
S11304B00F900F900F900F9000E010E01BC0E3E04E
S11304C0F0E0EC0FFD1FE00FF11F80811F928F936E
S11304D083E791E09F938F930E945B0483EC99E000
S11304E00197F1F700C000000F5F1F4F0F900F90AE
S11304F00F900F900E151F0514F32A960FB6F8945B
S1130500DEBF0FBECDBFDF91CF91FF91EF91BF91C1
S1130510AF919F918F917F916F915F914F913F9197
S11305202F911F910F91FF90EF900F900FBE0F909E
S11305301F9018958FE190E00E94C3016EEC71E06A
S11305408AEC91E00E9410040E945700F89420B3B2
S113055081E090E0AC0102C0440F551F2A95E2F7F8
S11305609A012095309540B302C0880F991F4A958F
S1130570E2F7822B932B91B3892381BB86B18E7FC3
S113058086B987B1816087B985B7806885BF85B72B
S11305908F6085BF86B786BF8BB7806E8BBF80B7F1
S11305A0886080BF78940E947D000E9433030E947B
S11305B079038FE0E6ECF1E0ABEEB1E001900D924F
S11305C08A95E1F78AE0E0E8F1E0AAEFB1E0019072
S11305D00D928A95E1F78AE0EAE8F1E0A9E0B2E059
S11305E001900D928A95E1F78AE0E4E9F1E0A8E14F
S11305F0B2E001900D928A95E1F78AE0EEE9F1E02C
S1130600A7E2B2E001900D928A95E1F78AE0E8EA68
S1130610F1E0A6E3B2E001900D928A95E1F78AE059
S1130620E2EBF1E0A5E4B2E001900D928A95E1F7E6
S11306308AE0ECEBF1E0A4E5B2E001900D928A953A
S1130640E1F781E08093EA010E94430180E090E0B9
S113065001C0019688309105E4F30E948E00FDCF1D
S11306608093001008958EEA0E94300381EA0E946C
S113067030038AED0E94300382E10E94300388EC4B
S11306800E94300388EA0E9430038FE30E94300303
S113069085ED0E94300380E80E94300381E80E94C7
S11306A0300380E50E94300389ED0E94300381E22B
S11306B00E94300380E20E94300382E00E943003F3
S11306C08BED0E94300380E30E9430038DEA0E9488
S11306D0300380E00E94300384EA0E94300386EAFB
S11306E00E9430038FEA0E94300308958093001221
S11306F00895CF9380EB0E943003C0E004C080E0F3
S11307000E947603CF5FCC23D4F781EB0E943003A1
S1130710C0E004C080E00E947603CF5FCC23D4F70E
S113072082EB0E943003C0E004C080E00E947603A4
S1130730CF5FCC23D4F783EB0E943003C0E004C026
S113074080E00E947603CF5FCC23D4F784EB0E9431
S11307503003C0E004C080E00E947603CF5FCC2366
S1130760D4F785EB0E943003C0E004C080E00E940F
S11307707603CF5FCC23D4F786EB0E943003C0E02E
S113078004C080E00E947603CF5FCC23D4F787EBCC
S11307900E943003C0E004C080E00E947603CF5F73
S11307A0CC23D4F7CF91089587B3806B87BB8DB1E9
S11307B081658DB988B3806188BB08958FB9779BB3
S11307C0FECF08958FEF8FB9779BFECF8FB1089539
S11307D097FB072E16F4009407D077FD09D00E94EA
S11307E0FC0307FC05D03EF4909581959F4F089536
S11307F0709561957F4F0895AA1BBB1B51E107C0FB
S1130800AA1FBB1FA617B70710F0A61BB70B881F9C
S1130810991F5A95A9F780959095BC01CD0108952B
S11308200F931F93CF93DF93009731F461157105F4
S113083019F480E090E03AC08B01EC016EE070E0C6
S113084081E090E00E948206FC01892B91F380E80C
S113085083830115110571F01387028781E883836F
S11308608091630290916402892B21F4F0936402D5
S1130870E09363022097C9F0D187C08783818260A7
S113088083838091650290916602892B71F4F093C1
S11308906602E09365028091670290916802892B59
S11308A021F4F0936802E0936702CF01DF91CF91C6
S11308B01F910F910895A0E0B0E0E1E6F4E00C94FC
S11308C08608AE014B5F5F4FFA0161917191AF01F0
S11308D080916502909166020E94A104E2E00C946A
S11308E0A2080F931F93CF93DF93E0916502F091D9
S11308F06602238121FF1BC08C01D0E0C0E0F80117
S113090081918F016091650270916602DB011896F6
S1130910ED91FC911997882331F00995892B79F38E
S1130920DFEFCFEFECCF8AE00995892B19F08FEF39
S11309309FEF02C08D2F9C2FDF91CF911F910F91BC
S11309400895ABE0B0E0E7EAF4E00C9476086C01BB
S11309507B018A01FC0117821682838181FFCCC14D
S1130960CE0101963C01F6019381F70193FD859137
S113097093FF81917F01882309F4BAC1853239F448
S113098093FD859193FF81917F01853229F4B6010E
S113099090E00E94DC07E7CF912C212C312CFFE161
S11309A0F315D8F08B3279F038F4803279F0833251
S11309B0A1F4232D20611DC08D3261F0803369F4D0
S11309C0232D216016C0832D8260382EE32DE46030
S11309D03E2E2AC0F32DF8601DC037FC2DC020ED3B
S11309E0280F2A3040F08E32B9F436FC81C1232D11
S11309F02064322E19C036FE06C08AE0989E200D6F
S1130A001124922E11C0EAE02E9E200D1124222ED4
S1130A10F32DF0623F2E08C08C3621F4832D8068BC
S1130A20382E02C0883641F4F70193FD859193FF77
S1130A3081917F018111B3CF982F9F7D955493307D
S1130A4028F40C5F1F4F9FE399830DC0833631F068
S1130A50833771F0833509F059C021C0F8018081D2
S1130A6089830E5F1F4F88248394912C530113C0F4
S1130A702801F2E04F0E511CF801A080B18036FE2F
S1130A8003C0692D70E002C06FEF7FEFC5010E94C3
S1130A90D1074C018201F32DFF773F2E16C02801A8
S1130AA022E0420E511CF801A080B18036FE03C042
S1130AB0692D70E002C06FEF7FEFC5010E94BF0790
S1130AC04C01F32DF0683F2E820133FC1BC0822DB4
S1130AD090E088169906B0F4B60180E290E00E9496
S1130AE0DC072A94F4CFF50137FC859137FE819118
S1130AF05F01B60190E00E94DC0721102A9421E0F6
S1130B00821A91088114910471F7E8C0843611F0B7
S1130B10893641F5F80137FE07C060817181828111
S1130B2093810C5F1F4F08C060817181072E000CF8
S1130B30880B990B0E5F1F4FF32DFF763F2E97FF07
S1130B4009C090958095709561957F4F8F4F9F4F09
S1130B50F0683F2E2AE030E0A3010E941808882E96
S1130B60861845C0853731F4232D2F7EB22E2AE016
S1130B7030E025C0932D997FB92E8F36C1F018F43B
S1130B80883579F0B5C0803719F0883721F0B0C0C6
S1130B90E92FE061BE2EB4FE0DC0FB2DF460BF2E24
S1130BA009C034FE0AC0292F2660B22E06C028E0F0
S1130BB030E005C020E130E002C020E132E0F8017D
S1130BC0B7FE07C060817181828193810C5F1F4FE2
S1130BD006C06081718180E090E00E5F1F4FA30129
S1130BE00E941808882E8618FB2DFF773F2E36FEAC
S1130BF00DC0232D2E7FA22E891458F434FE0BC071
S1130C0032FC09C0832D8E7EA82E05C0B82CA32CDF
S1130C1003C0B82C01C0B92CA4FE0FC0FE01E80D1E
S1130C20F11D8081803321F49A2D997EA92E09C06B
S1130C30A2FE06C0B394B39404C08A2D867809F04A
S1130C40B394A3FC11C0A0FE06C0B21488F4280C0F
S1130C50922C9B180EC0B21460F4B60180E290E0AE
S1130C600E94DC07B394F7CFB21418F42B1802C017
S1130C70982C212CA4FE10C0B60180E390E00E94C1
S1130C80DC07A2FE17C0A1FC03C088E790E002C005
S1130C9088E590E0B6010CC08A2D867859F0A1FE53
S1130CA002C08BE201C080E2A7FC8DE2B60190E0B5
S1130CB00E94DC07891438F4B60180E390E00E94B6
S1130CC0DC079A94F7CF8A94F301E80DF11D808133
S1130CD0B60190E00E94DC078110F5CF222009F4D0
S1130CE042CEB60180E290E00E94DC072A94F6CF5F
S1130CF0F6018681978102C08FEF9FEF2B96E2E188
S1130D000C9492080F931F93CF93DF93869F8001D7
S1130D10879F100D969F100D1124C8010E949E06F6
S1130D20EC01009729F0A80160E070E00E94CA0776
S1130D30CE01DF91CF911F910F9108950F931F93CF
S1130D40CF93DF938230910510F482E090E0E0913C
S1130D506B02F0916C0220E030E0A0E0B0E030974C
S1130D6019F1408151810281138148175907C8F054
S1130D708417950769F4109731F012960C93129723
S1130D8013961C9327C000936B0210936C0222C02D
S1130D902115310519F04217530718F49A01BD01C2
S1130DA0EF01DF01F801DBCF21153105F9F0281B34
S1130DB0390B2430310580F48A819B8161157105DA
S1130DC021F0FB019383828304C090936C0280938F
S1130DD06B02FE01329644C0FE01E20FF31F8193C1
S1130DE0919322503109398328833AC020916902B2
S1130DF030916A02232B41F42091020130910301C6
S1130E0030936A022093690220910001309101011C
S1130E102115310541F42DB73EB74091040150919D
S1130E200501241B350BE0916902F0916A02E21777
S1130E30F307A0F42E1B3F0B2817390778F0AC01F9
S1130E404E5F5F4F2417350748F04E0F5F1F5093D6
S1130E506A02409369028193919302C0E0E0F0E05A
S1130E60CF01DF91CF911F910F910895CF93DF931D
S1130E70009709F481C0FC01329713821282A09179
S1130E806B02B0916C02109781F420813181820F42
S1130E90931F2091690230916A022817390751F58E
S1130EA0F0936A02E093690267C0ED0120E030E04C
S1130EB0CE17DF0740F44A815B819E01411551053D
S1130EC0F1F0EA01F5CFD383C28340815181840FCD
S1130ED0951FC817D90759F488819981840F951FE4
S1130EE00296918380838A819B81938382832115D7
S1130EF0310529F4F0936C02E0936B023DC0E901E3
S1130F00FB83EA8349915991C40FD51FEC17FD0760
S1130F1061F480819181840F951F0296E901998380
S1130F208883828193819B838A83E0E0F0E0129638
S1130F308D919C911397009719F0FD01DC01F7CF77
S1130F408D919C9111979D012E5F3F4F820F931FAE
S1130F502091690230916A022817390769F43097A1
S1130F6029F410926C0210926B0202C01382128256
S1130F70B0936A02A0936902DF91CF910895FC01B6
S1130F800590615070400110D8F7809590958E0FB0
S1130F909F1F0895DC0101C06D9341505040E0F75C
S1130FA00895FC016150704001900110D8F78095BC
S1130FB090958E0F9F1F08950F931F93CF93DF93E8
S1130FC0FB01238121FD03C08FEF9FEF2CC022FF83
S1130FD016C046815781248135814217530744F452
S1130FE0A081B1819D012F5F3F4F318320838C937A
S1130FF0268137812F5F3F4F3783268314C08B01AF
S1131000EC01FB010084F185E02D0995892BE1F6C3
S1131010D80116968D919C911797019617969C93DB
S11310208E931697CE01DF91CF911F910F91089562
S1131030FA01AA27283051F1203181F1E8946F9305
S11310406E7F6E5F7F4F8F4F9F4FAF4FB1E03ED0AB
S1131050B4E03CD0670F781F891F9A1FA11D680F49
S1131060791F8A1F911DA11D6A0F711D811D911D7C
S1131070A11D20D009F468943F912AE0269F1124F1
S11310803019305D3193DEF6CF010895462F477055
S1131090405D4193B3E00FD0C9F7F6CF462F4F70B0
S11310A0405D4A3318F0495D31FD4052419302D00E
S11310B0A9F7EACFB4E0A6959795879577956795B4
S11310C0BA95C9F700976105710508959B01AC01B4
S11310D00A2E06945795479537952795BA95C9F7DB
S11310E0620F731F841F951FA01D08952F923F92B6
S11310F04F925F926F927F928F929F92AF92BF9224
S1131100CF92DF92EF92FF920F931F93CF93DF93CF
S1131110CDB7DEB7CA1BDB0B0FB6F894DEBF0FBE2C
S1131120CDBF09942A88398848885F846E847D8479
S11311308C849B84AA84B984C884DF80EE80FD807B
S11311400C811B81AA81B981CE0FD11D0FB6F894F1
S1111150DEBF0FBECDBFED010895F894FFCFB2
S113115E00006D0220002564200D0A00204D43502E
S113116E32353135206973204E4F5420696E206319
S113117E6F6E66696775726174696F6E206D6F64E8
S113118E6520616674657220726573657420210032
S113119E0D0A526967687420627574746F6E0D005F
S11311AE0D0A4C65667420627574746F6E0D006C56
S11311BE656E3A2025692C2069643A202569200D34
S11311CE200A00444154413A202569200D200A008A
S11311DE656C656D656E74203100656C656D656E4C
S11311EE74203200656C656D656E74203300656C19
S11311FE656D656E74203400656C656D656E742066
S113120E3500656C656D656E74203600656C656DB4
S113121E656E742037002D2D2D2D2D4D454E552DDB
S109122E2D2D2D2D000002
S9030000FC
