S010000047727570706534342E7372656339
S11300000C94B4010C94FD040C940C050C9452054E
S11300100C94D1010C94D1010C94D1010C94D10114
S11300200C94D1010C94D1010C94D1010C94D10104
S11300300C94D1010C94D1010C94D1010C94D101F4
S11300400C94D1010C94D1010C94D1010C94D101E4
S11300500C94D1010C94D1010C94D1010C94D101D4
S11300600C94D1010C94D1010C94D1010C94D101C4
S1130070000000000000000000065F5F06000000B2
S11300800007070007070000147F7F147F7F140018
S1130090242E6B6B3A120000466630180C66620020
S11300A0307A4F5D377A48000407030000000000EF
S11300B0001C3E63410000000041633E1C00000040
S11300C0082A3E1C1C3E2A0808083E3E0808000078
S11300D000A0E0600000000008080808080800000C
S11300E000006060000000006030180C060301008E
S11300F03E7F594D7F3E000042427F7F40400000DA
S1130100627359496F660000226349497F360000D3
S1130110181C16137F7F1000276745457D390000A2
S11301203C7E4B4979300000036371190F070000CE
S1130130367F49497F360000064F49693F1E00005B
S113014000006C6C0000000000A0EC6C00000000DB
S1130150081C366341000000141414141414000025
S1130160004163361C080000020351590F060000C9
S11301703E7F415D5D1F1E007C7E13137E7C00006C
S1130180417F7F49497F36001C3E63414163220021
S1130190417F7F41637F1C00417F7F495D41630054
S11301A0417F7F491D0103001C3E6341517372006E
S11301B07F7F08087F7F000000417F7F41000000AF
S11301C0307040417F3F0100417F7F081C7763000E
S11301D0417F7F41406070007F7F060C067F7F0077
S11301E07F7F060C187F7F001C3E6341633E1C002A
S11301F0417F7F49090F06001E3F21717F5E000089
S1130200417F7F19396F460026674D597B320000C4
S113021003417F7F410300007F7F40407F7F0000D8
S11302201F3F60603F1F00007F7F3018307F7F00DA
S113023063771C081C776300074F78784F0700002A
S11302406773594D47637100007F7F41410000008F
S11302500103060C183060000041417F7F0000005C
S1130260080C0603060C0800808080808080808053
S11302700000030704000000207454543C7840003C
S1130280413F7F44447C3800387C44446C2800005F
S1130290307848493F7F4000387C54545C18000053
S11302A0487E7F490302000098BCA4A4F87C0400A3
S11302B0417F7F08047C780000447D7D400000007D
S11302C040C484FD7D000000417F7F10386C4400F1
S11302D000417F7F400000007C7C0C180C7C78007F
S11302E07C7C04047C780000387C44447C38000026
S11302F084FCF8A4243C1800183C24A4F8FC8400D2
S1130300447C78441C180000485C54547424000055
S113031000043E7F442400003C7C40403C7C400080
S11303201C3C60603C1C00003C7C6030607C3C00F9
S1130330446C3810386C44009CBCA0A0FC7C0000C9
S11303404C64745C4C64000008083E774141000032
S113035000000077770000004141773E0808000064
S1130360020301030203010011241FBECFEFD4E0F6
S1130370DEBFCDBF12E0A0E0B1E0E0EAF0E202C0EF
S113038005900D92AC37B107D9F723E0ACE7B2E0A2
S113039001C01D92AB3BB207E1F70E94DD050C944E
S11303A04E100C94000081B3806281BB8FB58065D0
S11303B08FBD8EB589608EBD81E090E09BBD8ABD06
S11303C008958FEF8093001484E18A95F1F780E01B
S11303D090E00BC020910014FC01EE0FFF1FED55BF
S11303E0FD4F30E03183208301968430910594F3EE
S11303F0089587EA91E60197F1F700C000000E9492
S1130400E101E3EAF2E0208131813093900220930C
S11304108F02828193819093800280937F02309334
S11304208C0220938B029093A2028093A102848178
S1130430958190938E0280938D028681978190930B
S11304408A028093890208950E94E101E3EAF2E0BE
S11304508081918122813381992760918F027091EB
S1130460900268177907B4F4AC01461B570BE4E615
S1130470E49FC001E59F900D11244FEF50E0FA0175
S1130480E61BF70BBF010E94890B70939A026093DD
S113049099020FC0AC01461B570BE4E6E49FC00170
S11304A0E59F900D11240E94890B70939A0260932A
S11304B09902C901992760917F027091800268179F
S11304C07907B4F49C01261B370B44E6429FC00114
S11304D0439F900D11242FEF30E0A901461B570BC9
S11304E0BA010E94890B70939C0260939B02089549
S11304F09C01261B370B44E6429FC001439F900D8D
S113050011240E94890B70939C0260939B020895AE
S11305100E942402E9E9F2E0208131818281938101
S1130520233331053CF023E030E030939E022093E6
S11305309D020EC02E3C3F4F3CF422E030E030934D
S11305409E0220939D0204C010929E0210929D026E
S1130550833391053CF081E090E09093A002809376
S11305609F0208958E3C9F4F3CF484E090E090936A
S1130570A00280939F0208951092A00210929F02FD
S113058008950F931F93CF93DF93CDB7DEB72A97C8
S11305900FB6F894DEBF0FBECDBF0E942402209197
S11305A0990230919A0280918B0290918C022817C3
S11305B0390709F540919B0250919C028091A10258
S11305C09091A20248175907B1F44091A7025091A3
S11305D0A80280918D0290918E024817590759F410
S11305E04091A9025091AA028091890290918A02B5
S11305F048175907F1F081E0898384E08A832C59F4
S11306002B8330919B023C593C83E3EAF2E0448122
S11306104D8356815E8301E014E06F81788589857E
S11306209A850E94D40387EA91E60197F1F700C006
S11306300000E9E9F2E08081918190938C0280933B
S11306408B02828193819093A2028093A102E3EAB8
S1130650F2E08481958190938E0280938D0286814D
S1130660978190938A02809389022A960FB6F89410
S1130670DEBF0FBECDBFDF91CF911F910F910895C3
S1130680CF93C82F88B38F7E88BB83E090E00E940D
S1130690780B8C2F90E00E94780B0E947C0B98B30F
S11306A0906198BBCF910895CF93DF93D82FC62F35
S11306B088B38F7E88BB82E090E00E94780B8D2FF8
S11306C090E00E94780B8C2F90E00E94780B88B306
S11306D0806188BBDF91CF910895877098B39F7E26
S11306E098BB806890E00E94780B88B3806188BBD7
S11306F008951F93CF93DF93182FD62FC42F88B359
S11307008F7E88BB85E090E00E94780B812F90E07B
S11307100E94780B8D2F90E00E94780B8C2F90E034
S11307200E94780B88B3806188BBDF91CF911F91C1
S1130730089588B38F7E88BB80EC90E00E94780B8C
S113074088B3806188BB08950E946E0B0E94990350
S11307508EE00E944003807E803831F086E091E094
S11307600E94120C81E0089543E86FEF8AE20E9430
S1130770790349EF6FEF89E20E94790347E067EC60
S113078088E20E94790340E260E680E60E947903F1
S113079041E061E08BE20E94790340E060EE8FE08B
S11307A00E94790380E00895FF920F931F93CF93E3
S11307B0DF93CDB7DEB72A970FB6F894DEBF0FBE2E
S11307C0CDBF09831A832B833C834D835E836F8360
S11307D0788789879A8780E30E94400383FDFBCF53
S11307E0198180E2189FB001112482E30E9454030E
S11307F0612F66956695669581E30E945403FA809D
S11308006F2D85E30E94540300E010E013C0E3E081
S1130810F0E0EC0FFD1FE00FF11F608186E3800F15
S11308200E94540383EC99E00197F1F700C00000A3
S11308300F5F1F4F8F2D90E00817190744F381E0D5
S11308400E946D032A960FB6F894DEBF0FBECDBF8B
S1130850DF91CF911F910F91FF900895FF920F9315
S11308601F93CF93DF938C0183EC99E00197F1F709
S113087000C0000085E60E9440038F70F82EF80146
S1130880818383EC99E00197F1F700C0000081E6D1
S11308900E944003C82FD0E0CC0FDD1FCC0FDD1F1A
S11308A0CC0FDD1F82E60E944003829586958770F7
S11308B0C82BF801C083C0E0D0E00FC08C2F8A5948
S11308C00E944003F801EC0FFD1F828383EC99E042
S11308D00197F1F700C0000021968F2D90E0C81712
S11308E0D90764F340E061E08CE20E947903C80117
S11308F0DF91CF911F910F91FF9008959CBF80B914
S113090088E181B98EE88CBF0895159BFECF83B929
S11309100895179BFECF83B108950E94860BE6E2EB
S1130920F3E0828390E0268137812817390710F499
S11309300E949B0408950F931F93CF93DF93CDB729
S1130940DEB72A970FB6F894DEBF0FBECDBF0E9464
S11309508D041092260304E011E020E03C814D81D7
S11309605E816F81788589859A850E94D4032A9651
S11309700FB6F894DEBF0FBECDBFDF91CF911F91AC
S11309800F91089580912903811102C00E949B0454
S113099080912903813029F4E6E2F3E081818F5FBD
S11309A081830895F89420B381E090E0AC0102C003
S11309B0440F551F2A95E2F79A012095309540B3CC
S11309C002C0880F991F4A95E2F7822B932B91B3AB
S11309D0892381BB86B18E7F86B987B1816087B94F
S11309E085B7806885BF85B78F6085BF86B786BFAA
S11309F08BB7806E8BBF789408951F920F920FB6B9
S1130A000F9211248F9381E080937E028F910F9037
S1130A100FBE0F901F9018951F920F920FB60F9252
S1130A2011240F931F932F933F934F935F936F93CF
S1130A307F938F939F93AF93BF93EF93FF93809193
S1130A4026038823C9F081E0282F8093A90300910D
S1130A50A7031091A8033091AA034091AB035091CE
S1130A60AC036091AD037091AE038091AF0390919C
S1130A70B0030E94D40303C081E080937D02FF9100
S1130A80EF91BF91AF919F918F917F916F915F9102
S1130A904F913F912F911F910F910F900FBE0F9087
S1130AA01F9018951F920F920FB60F921124CF9298
S1130AB0DF92FF920F931F932F933F934F935F9374
S1130AC06F937F938F939F93AF93BF93EF93FF9312
S1130AD0CF93DF93CDB7DEB72A97DEBFCDBF87EACA
S1130AE091E60197F1F700C00000CE0101960E9443
S1130AF02E04F9808FEF8F0D8E31A0F58A81C82ED8
S1130B00D12C1F92FF921F928F938AE391E09F93BF
S1130B108F930E94FC0B0F900F900F900F900F90EB
S1130B200F9000E010E01BC0E3E0F0E0EC0FFD1FCD
S1130B30E00FF11F80811F928F938EE491E09F93C9
S1130B408F930E94FC0B83EC99E00197F1F700C0AE
S1130B5000000F5F1F4F0F900F900F900F900C1518
S1130B601D0514F394E0F91203C081E08093260379
S1130B7085E0F81204C08B8190E00E94C2042A969A
S1130B800FB6F894DEBF0FBECDBFDF91CF91FF91BA
S1130B90EF91BF91AF919F918F917F916F915F91F1
S1130BA04F913F912F911F910F91FF90DF90CF9024
S1130BB00F900FBE0F901F9018958FE190E00E9448
S1130BC07E0469E874E085E894E00E94B10B0E9419
S1130BD0D3010E94D20480B7886080BF0E94F901CB
S1130BE00E94760A0E94130B0E94A4030E94290605
S1130BF00E94820B0E949E0810922603E7EAF3E00B
S1130C0082E0808381E0818380912603882319F028
S1130C100E94C102F9CF0E94880280917E0288233B
S1130C2021F00E94950910927E0280919F0290917A
S1130C30A002009719F421E020937C0220917C0209
S1130C40222311F3892B01F30E94600610927C0287
S1130C50DBCF1092250310922403089580E00E94B4
S1130C60B90A88E10E94B90A88E10E94B90A88E1B8
S1130C700E94B90A8EE70E94B90A8CE30E94B90A5D
S1130C8088E10E94B90A80E00E94B90A089580E0D0
S1130C900E94B90A80E00E94B90A80E00E94B90A61
S1130CA080E00E94B90A80E00E94B90A80E00E94B4
S1130CB0B90A80E00E94B90A80E00E94B90A089546
S1130CC01F93CF93DF930E9488021091AB02C12F30
S1130CD0D0E08091240390912503892BA1F5C230A3
S1130CE0D105B9F480919F029091A00281309105C1
S1130CF011F0049771F487E08093AB0260E00E94E6
S1130D00CD0A0E942E0660E0812F0E94CD0A0E9427
S1130D104706C730D105B9F480919F029091A00293
S1130D208130910511F0049771F482E08093AB0255
S1130D3060E00E94CD0A0E942E0660E0812F0E948E
S1130D40CD0A0E94470680912403909125030197C0
S1130D5009F085C0C230D10551F580919F02909170
S1130D60A002049781F4EBEAF2E080818F5F808334
S1130D7060E00E94CD0A0E942E0660E0812F0E944E
S1130D80CD0A0E94470680919F029091A00201978C
S1130D9071F487E08093AB0260E00E94CD0A0E9468
S1130DA02E0660E0812F0E94CD0A0E944706C330C0
S1130DB0D10551F580919F029091A002019781F491
S1130DC0EBEAF2E080818150808360E00E94CD0AEA
S1130DD00E942E0660E0812F0E94CD0A0E944706E1
S1130DE080919F029091A002049771F487E0809310
S1130DF0AB0260E00E94CD0A0E942E0660E0812FC3
S1130E000E94CD0A0E944706C730D10541F5809162
S1130E109F029091A002019771F483E08093AB024A
S1130E2060E00E94CD0A0E942E0660E0812F0E949D
S1130E30CD0A0E94470680919F029091A0020497D8
S1130E4071F482E08093AB0260E00E94CD0A0E94BC
S1130E502E0660E0812F0E94CD0A0E9447068091F1
S1130E60240390912503029709F085C0C230D1056F
S1130E7051F580919F029091A002049781F4EBEACE
S1130E80F2E080818F5F808360E00E94CD0A0E943F
S1130E902E0660E0812F0E94CD0A0E9447068091B1
S1130EA09F029091A002019771F487E08093AB02B6
S1130EB060E00E94CD0A0E942E0660E0812F0E940D
S1130EC0CD0A0E944706C330D10551F580919F0297
S1130ED09091A002019781F4EBEAF2E080818150C5
S1130EE0808360E00E94CD0A0E942E0660E0812F7C
S1130EF00E94CD0A0E94470680919F029091A00211
S1130F00049771F487E08093AB0260E00E94CD0AFD
S1130F100E942E0660E0812F0E94CD0A0E9447069F
S1130F20C730D10541F580919F029091A0020197AD
S1130F3071F483E08093AB0260E00E94CD0A0E94CA
S1130F402E0660E0812F0E94CD0A0E944706809100
S1130F509F029091A002049771F482E08093AB0207
S1130F6060E00E94CD0A0E942E0660E0812F0E945C
S1130F70CD0A0E944706809124039091250303978C
S1130F8009F0B1C0C230D10551F580919F02909112
S1130F90A002019771F487E08093AB0260E00E94A5
S1130FA0CD0A0E942E0660E0812F0E94CD0A0E9485
S1130FB0470680919F029091A002049781F4EBEA86
S1130FC0F2E080818F5F808360E00E94CD0A0E94FE
S1130FD02E0660E0812F0E94CD0A0E944706C3308E
S1130FE0D10561F580919F029091A002049781F44C
S1130FF0EBEAF2E080818F5F808360E00E94CD0A9B
S11310000E942E0660E0812F0E94CD0A0E944706AE
S113101080919F029091A002019781F4EBEAF2E0A3
S113102080818150808360E00E94CD0A0E942E0658
S113103060E0812F0E94CD0A0E944706C430D1058A
S113104041F580919F029091A002019771F483E091
S11310508093AB0260E00E94CD0A0E942E0660E0FD
S1131060812F0E94CD0A0E94470680919F02909191
S1131070A002049771F487E08093AB0260E00E94C1
S1131080CD0A0E942E0660E0812F0E94CD0A0E94A4
S11310904706279741F580919F029091A0020197FE
S11310A071F484E08093AB0260E00E94CD0A0E9458
S11310B02E0660E0812F0E94CD0A0E94470680918F
S11310C09F029091A002049771F482E08093AB0296
S11310D060E00E94CD0A0E942E0660E0812F0E94EB
S11310E0CD0A0E944706DF91CF911F910895CF93B7
S11310F0DF930E94D60A8BEB92E00E94F60AC1E0CD
S1131100D0E00FC06AE08C2F0E94CD0A21962FE018
S11311102C9FC0012D9F900D112484559D4F0E943A
S1131120F60AC830D10574F360E08091AB020E94E6
S1131130CD0A0E942E06DF91CF9108958FE0E1EC55
S1131140F1E0ABEBB2E001900D928A95E1F780E219
S113115090E09093CB028093CA0225E0E0EBF1E0AB
S1131160A9EDB2E001900D922A95E1F79093E9027E
S11311708093E8029093F8028093F7029093070318
S11311808093060390931603809315038CE0E5EB9C
S1131190F1E0A4E2B3E001900D928A95E1F782E0D8
S11311A08093AB020E947708089581E1E0EDF1E0BD
S11311B0ABEBB2E001900D928A95E1F780E290E00A
S11311C09093CB028093CA022CE0E1EEF1E0A9ED0A
S11311D0B2E001900D922A95E1F72CE0EDEEF1E0FA
S11311E0A8EEB2E001900D922A95E1F79093F802EF
S11311F08093F7029093070380930603909316035A
S11312008093150385E0E9EFF1E0A4E2B3E00190F7
S11312100D928A95E1F782E08093AB020E947708F1
S11312200895CF93DF9381E1E0E2F2E0ABEBB2E02B
S113123001900D928A95E1F7CBEAD2E01F8E85E00A
S1131240E1E3F2E0A9EDB2E001900D928A95E1F7B5
S113125087E0E6E3F2E0A8EEB2E001900D928A9511
S1131260E1F785E0EDE3F2E0A7EFB2E001900D9243
S11312708A95E1F7109206031092150385E0E9EFD1
S1131280F1E0A4E2B3E001900D928A95E1F782E0E7
S113129088830E947708DF91CF9108958FE0ECE670
S11312A0F2E0ABEBB2E001900D928A95E1F78BE0AE
S11312B0E2E4F2E0AAECB2E001900D928A95E1F743
S11312C085E0EDE4F2E0A9EDB2E001900D928A959B
S11312D0E1F780E290E09093E9028093E8022DE048
S11312E0E2E5F2E0A7EFB2E001900D922A95E1F772
S11312F0E6E0F3E021E333E73183208324E730E0C1
S11313003383228390931603809315038DE0EFE5D6
S1131310F2E0A4E2B3E001900D928A95E1F787E050
S11313208093AB020E94770808958091AB0290E00D
S113133020912403309125032115310581F4823055
S1131340910569F40E94130B0E94D5080E94D508E8
S113135081E090E090932503809324030895213045
S1131360310599F58230910581F40E94130B0E9496
S113137011090E94110981E08093290382E090E021
S1131380909325038093240308958330910579F481
S11313900E94130B0E9411090E9411091092290343
S11313A082E090E09093250380932403089587308E
S11313B0910559F40E94130B0E949E080E949E08F6
S11313C01092250310922403089522303105A9F5C3
S11313D08230910579F40E94130B0E9411090E9436
S11313E0110910922A0383E090E0909325038093DF
S11313F0240308958330910581F40E94130B0E9405
S113140011090E94110981E080932A0383E090E08E
S1131410909325038093240308958730910569F4FC
S11314200E94130B0E949E080E949E0881E090E097
S1131430909325038093240308952330310509F004
S113144042C08230910569F40E94130B0E944E0938
S113145010922B0384E090E090932503809324035F
S113146008958330910571F40E94130B0E944E0974
S113147081E080932B0384E090E090932503809394
S1131480240308958430910571F40E94130B0E9483
S11314904E0982E080932B0384E090E0909325032F
S11314A08093240308958730910569F40E94130BF7
S11314B00E94D5080E94D50882E090E0909325030D
S11314C08093240308952430310561F4079751F47F
S11314D00E94130B0E949E080E949E0810922503EE
S11314E01092240308958093001008958EEA0E94B8
S11314F0730A81EA0E94730A8AED0E94730A82E1E8
S11315000E94730A88EC0E94730A88EA0E94730A94
S11315108FE30E94730A85ED0E94730A80E80E949B
S1131520730A81E80E94730A80E50E94730A89EDB8
S11315300E94730A81E20E94730A80E20E94730A85
S113154082E00E94730A8BED0E94730A80E30E947A
S1131550730A8DEA0E94730A80E00E94730A84EA87
S11315600E94730A86EA0E94730A8FEA0E94730A31
S11315700895809300120895806B0E94730A089561
S1131580CF93C82FCF7082958F7080610E94730AA9
S11315908C2F0E94730ACF910895CF93C62F0E9477
S11315A0BC0A8C2F0E94C00ACF91089560E080E0AD
S11315B00E94CD0A0895CF93DF93D82FC0E011C0C5
S11315C0ED2FF0E0B097EE0FFF1FEE0FFF1FEE0FB1
S11315D0FF1FEC0FF11DE059FF4F84910E94B90ADF
S11315E0CF5FC83068F3DF91CF9108951F93CF93F5
S11315F0DF93EC0110E007C0FE01E80FF91F8081C2
S11316000E94DB0A1F5F812F90E0FE010190002001
S1131610E9F73197EC1BFD0B8E179F0768F3DF91F9
S1131620CF911F910895CF9380EB0E94730AC0E07D
S113163004C080E00E94B90ACF5FCC23D4F781EBC9
S11316400E94730AC0E004C080E00E94B90ACF5F20
S1131650CC23D4F782EB0E94730AC0E004C080E07C
S11316600E94B90ACF5FCC23D4F783EB0E94730A9C
S1131670C0E004C080E00E94B90ACF5FCC23D4F755
S113168084EB0E94730AC0E004C080E00E94B90A9F
S1131690CF5FCC23D4F785EB0E94730AC0E004C06B
S11316A080E00E94B90ACF5FCC23D4F786EB0E9476
S11316B0730AC0E004C080E00E94B90ACF5FCC2363
S11316C0D4F787EB0E94730AC0E004C080E00E9454
S11316D0B90ACF5FCC23D4F7CF91089587B3806B39
S11316E087BB8DB181658DB988B3806188BB08954E
S11316F08FB9779BFECF08958FEF8FB9779BFECF7D
S11317008FB108958EB587608EBD08958CB59DB553
S1131710089597FB072E16F4009407D077FD09D09F
S11317200E949D0B07FC05D03EF4909581959F4F38
S11317300895709561957F4F0895AA1BBB1B51E1D5
S113174007C0AA1FBB1FA617B70710F0A61BB70B2D
S1131750881F991F5A95A9F780959095BC01CD01D2
S113176008950F931F93CF93DF93009731F461157E
S1131770710519F480E090E03AC08B01EC016EE051
S113178070E081E090E00E94230EFC01892B91F32C
S113179080E883830115110571F01387028781E8BE
S11317A083838091B1039091B203892B21F4F09348
S11317B0B203E093B1032097C9F0D187C087838136
S11317C0826083838091B3039091B403892B71F475
S11317D0F093B403E093B3038091B5039091B603FF
S11317E0892B21F4F093B603E093B503CF01DF9185
S11317F0CF911F910F910895A0E0B0E0E2E0FCE0EA
S11318000C942710AE014B5F5F4FFA016191719107
S1131810AF018091B3039091B4030E94420CE2E0C3
S11318200C9443100F931F93CF93DF93E091B30372
S1131830F091B403238121FF1BC08C01D0E0C0E0F0
S1131840F80181918F016091B3037091B403DB01BE
S11318501896ED91FC911997882331F00995892BFD
S113186079F3DFEFCFEFECCF8AE00995892B19F0FC
S11318708FEF9FEF02C08D2F9C2FDF91CF911F918F
S11318800F910895ABE0B0E0E8E4FCE00C9417108D
S11318906C017B018A01FC0117821682838181FF1E
S11318A0CCC1CE0101963C01F6019381F70193FD71
S11318B0859193FF81917F01882309F4BAC1853210
S11318C039F493FD859193FF81917F01853229F449
S11318D0B60190E00E947D0FE7CF912C212C312C92
S11318E0FFE1F315D8F08B3279F038F4803279F0D7
S11318F08332A1F4232D20611DC08D3261F0803329
S113190069F4232D216016C0832D8260382EE32DC7
S1131910E4603E2E2AC0F32DF8601DC037FC2DC0B4
S113192020ED280F2A3040F08E32B9F436FC81C104
S1131930232D2064322E19C036FE06C08AE0989EFC
S1131940200D1124922E11C0EAE02E9E200D1124A8
S1131950222EF32DF0623F2E08C08C3621F4832D05
S11319608068382E02C0883641F4F70193FD8591D2
S113197093FF81917F018111B3CF982F9F7D95545F
S1131980933028F40C5F1F4F9FE399830DC0833677
S113199031F0833771F0833509F059C021C0F80163
S11319A0808189830E5F1F4F88248394912C530177
S11319B013C02801F2E04F0E511CF801A080B18041
S11319C036FE03C0692D70E002C06FEF7FEFC501E2
S11319D00E94720F4C018201F32DFF773F2E16C037
S11319E0280122E0420E511CF801A080B18036FE8D
S11319F003C0692D70E002C06FEF7FEFC5010E9444
S1131A00600F4C01F32DF0683F2E820133FC1BC0A4
S1131A10822D90E088169906B0F4B60180E290E039
S1131A200E947D0F2A94F4CFF50137FC859137FE8F
S1131A3081915F01B60190E00E947D0F21102A94EC
S1131A4021E0821A91088114910471F7E8C0843668
S1131A5011F0893641F5F80137FE07C060817181C4
S1131A60828193810C5F1F4F08C060817181072EB2
S1131A70000C880B990B0E5F1F4FF32DFF763F2E42
S1131A8097FF09C090958095709561957F4F8F4F12
S1131A909F4FF0683F2E2AE030E0A3010E94B90F67
S1131AA0882E861845C0853731F4232D2F7EB22E1B
S1131AB02AE030E025C0932D997FB92E8F36C1F0EE
S1131AC018F4883579F0B5C0803719F0883721F0DB
S1131AD0B0C0E92FE061BE2EB4FE0DC0FB2DF46052
S1131AE0BF2E09C034FE0AC0292F2660B22E06C0BC
S1131AF028E030E005C020E130E002C020E132E01F
S1131B00F801B7FE07C060817181828193810C5F07
S1131B101F4F06C06081718180E090E00E5F1F4F0F
S1131B20A3010E94B90F882E8618FB2DFF773F2E44
S1131B3036FE0DC0232D2E7FA22E891458F434FEB8
S1131B400BC032FC09C0832D8E7EA82E05C0B82C94
S1131B50A32C03C0B82C01C0B92CA4FE0FC0FE01F5
S1131B60E80DF11D8081803321F49A2D997EA92EF0
S1131B7009C0A2FE06C0B394B39404C08A2D86782B
S1131B8009F0B394A3FC11C0A0FE06C0B21488F4FB
S1131B90280C922C9B180EC0B21460F4B60180E29B
S1131BA090E00E947D0FB394F7CFB21418F42B1871
S1131BB002C0982C212CA4FE10C0B60180E390E052
S1131BC00E947D0FA2FE17C0A1FC03C088E790E02D
S1131BD002C088E590E0B6010CC08A2D867859F0E1
S1131BE0A1FE02C08BE201C080E2A7FC8DE2B60137
S1131BF090E00E947D0F891438F4B60180E390E0F0
S1131C000E947D0F9A94F7CF8A94F301E80DF11D99
S1131C108081B60190E00E947D0F8110F5CF2220D3
S1131C2009F442CEB60180E290E00E947D0F2A942E
S1131C30F6CFF6018681978102C08FEF9FEF2B9636
S1131C40E2E10C9433100F931F93CF93DF93869F9D
S1131C508001879F100D969F100D1124C8010E94CA
S1131C603F0EEC01009729F0A80160E070E00E94AB
S1131C706B0FCE01DF91CF911F910F9108950F93B8
S1131C801F93CF93DF938230910510F482E090E0AC
S1131C90E091B903F091BA0320E030E0A0E0B0E0B5
S1131CA0309719F1408151810281138148175907F6
S1131CB0C8F08417950769F4109731F012960C93C5
S1131CC0129713961C9327C00093B9031093BA0379
S1131CD022C02115310519F04217530718F49A014F
S1131CE0BD01EF01DF01F801DBCF21153105F9F06A
S1131CF0281B390B2430310580F48A819B816115BE
S1131D00710521F0FB019383828304C09093BA038D
S1131D108093B903FE01329644C0FE01E20FF31F23
S1131D208193919322503109398328833AC02091B9
S1131D30B7033091B803232B41F420910201309171
S1131D4003013093B8032093B7032091000130912D
S1131D5001012115310541F42DB73EB7409104012D
S1131D6050910501241B350BE091B703F091B803A2
S1131D70E217F307A0F42E1B3F0B2817390778F05E
S1131D80AC014E5F5F4F2417350748F04E0F5F1FBD
S1131D905093B8034093B7038193919302C0E0E05A
S1131DA0F0E0CF01DF91CF911F910F910895CF9370
S1131DB0DF93009709F481C0FC01329713821282E9
S1131DC0A091B903B091BA03109781F420813181B5
S1131DD0820F931F2091B7033091B8032817390756
S1131DE051F5F093B803E093B70367C0ED0120E029
S1131DF030E0CE17DF0740F44A815B819E01411534
S1131E005105F1F0EA01F5CFD383C28340815181BA
S1131E10840F951FC817D90759F488819981840FB5
S1131E20951F0296918380838A819B819383828309
S1131E302115310529F4F093BA03E093B9033DC0A9
S1131E40E901FB83EA8349915991C40FD51FEC172B
S1131E50FD0761F480819181840F951F0296E90149
S1131E6099838883828193819B838A83E0E0F0E075
S1131E7012968D919C911397009719F0FD01DC0146
S1131E80F7CF8D919C9111979D012E5F3F4F820F4B
S1131E90931F2091B7033091B8032817390769F4C9
S1131EA0309729F41092BA031092B90302C0138236
S1131EB01282B093B803A093B703DF91CF91089532
S1131EC0FC010590615070400110D8F78095909501
S1131ED08E0F9F1F0895DC0101C06D934150504047
S1131EE0E0F70895FC016150704001900110D8F7AB
S1131EF0809590958E0F9F1F08950F931F93CF93F6
S1131F00DF93FB01238121FD03C08FEF9FEF2CC0E2
S1131F1022FF16C046815781248135814217530719
S1131F2044F4A081B1819D012F5F3F4F3183208311
S1131F308C93268137812F5F3F4F3783268314C0CC
S1131F408B01EC01FB010084F185E02D0995892BBF
S1131F50E1F6D80116968D919C91179701961796E4
S1131F609C938E931697CE01DF91CF911F910F9181
S1131F700895FA01AA27283051F1203181F1E8941B
S1131F806F936E7F6E5F7F4F8F4F9F4FAF4FB1E068
S1131F903ED0B4E03CD0670F781F891F9A1FA11D63
S1131FA0680F791F8A1F911DA11D6A0F711D811D64
S1131FB0911DA11D20D009F468943F912AE0269F29
S1131FC011243019305D3193DEF6CF010895462F88
S1131FD04770405D4193B3E00FD0C9F7F6CF462F69
S1131FE04F70405D4A3318F0495D31FD40524193D2
S1131FF002D0A9F7EACFB4E0A6959795879577958F
S11320006795BA95C9F700976105710508959B0115
S1132010AC010A2E06945795479537952795BA959E
S1132020C9F7620F731F841F951FA01D08952F9277
S11320303F924F925F926F927F928F929F92AF9254
S1132040BF92CF92DF92EF92FF920F931F93CF93A1
S1132050DF93CDB7DEB7CA1BDB0B0FB6F894DEBF38
S11320600FBECDBF09942A88398848885F846E845E
S11320707D848C849B84AA84B984C884DF80EE80A8
S1132080FD800C811B81AA81B981CE0FD11D0FB6B1
S1132090F894DEBF0FBECDBFED010895F894FFCFD5
S11320A00000BB032000204D4350323531352069F8
S11320B073204E4F5420696E20636F6E6669677596
S11320C0726174696F6E206D6F64652061667465FA
S11320D0722072657365742021006C656E3A202548
S11320E0692C2069643A202569200D200A004441A6
S11320F054413A202569200D200A00656C656D6500
S11321006E74203100656C656D656E7420320065F7
S11321106C656D656E74203300656C656D656E74F9
S1132120203400656C656D656E74203500656C65E2
S11321306D656E74203600656C656D656E74203750
S1132140002D2D2D2D2D4D454E552D2D2D2D2D0094
S1132150504C4159004C4541444552424F41524430
S113216000202D204D41494E204D454E55202D0037
S11321702D2047414D45204D4F4445533A202D20B5
S1132180004E6F726D616C206D6F64650041726307
S1132190616465206D6F6465004261636B002D208E
S11321A0436F6E74726F6C6C65723A202D20004A16
S11321B06F79737469636B00536C6964657273003F
S11321C0202D20444946464943554C5459202D203E
S11321D00045617379004E6F726D616C00486172E5
S11321E06400596F75722054696D653A00313A3450
S11321F035004C6561646572626F6172643A0045D2
S113220078697420746F206D656E7500202D2047E9
S10F2210414D45204F564552202D000042
S9030000FC
