S010000047727570706534342E7372656339
S11300000C94B4010C94B8040C94C7040C940C051F
S11300100C94D1010C94D1010C94D1010C94D10114
S11300200C94D1010C94D1010C94D1010C94D10104
S11300300C94D1010C94D1010C94D1010C94D101F4
S11300400C94D1010C94D1010C94D1010C94D101E4
S11300500C94D1010C94D1010C94D1010C94D101D4
S11300600C94D1010C94D1010C94D1010C94D101C4
S1130070000000000000000000065F5F06000000B2
S11300800007070007070000147F7F147F7F140018
S1130090242E6B6B3A120000466630180C66620020
S11300A0307A4F5D377A48000407030000000000EF
S11300B0001C3E63410000000041633E1C00000040
S11300C0082A3E1C1C3E2A0808083E3E0808000078
S11300D000A0E0600000000008080808080800000C
S11300E000006060000000006030180C060301008E
S11300F03E7F594D7F3E000042427F7F40400000DA
S1130100627359496F660000226349497F360000D3
S1130110181C16137F7F1000276745457D390000A2
S11301203C7E4B4979300000036371190F070000CE
S1130130367F49497F360000064F49693F1E00005B
S113014000006C6C0000000000A0EC6C00000000DB
S1130150081C366341000000141414141414000025
S1130160004163361C080000020351590F060000C9
S11301703E7F415D5D1F1E007C7E13137E7C00006C
S1130180417F7F49497F36001C3E63414163220021
S1130190417F7F41637F1C00417F7F495D41630054
S11301A0417F7F491D0103001C3E6341517372006E
S11301B07F7F08087F7F000000417F7F41000000AF
S11301C0307040417F3F0100417F7F081C7763000E
S11301D0417F7F41406070007F7F060C067F7F0077
S11301E07F7F060C187F7F001C3E6341633E1C002A
S11301F0417F7F49090F06001E3F21717F5E000089
S1130200417F7F19396F460026674D597B320000C4
S113021003417F7F410300007F7F40407F7F0000D8
S11302201F3F60603F1F00007F7F3018307F7F00DA
S113023063771C081C776300074F78784F0700002A
S11302406773594D47637100007F7F41410000008F
S11302500103060C183060000041417F7F0000005C
S1130260080C0603060C0800808080808080808053
S11302700000030704000000207454543C7840003C
S1130280413F7F44447C3800387C44446C2800005F
S1130290307848493F7F4000387C54545C18000053
S11302A0487E7F490302000098BCA4A4F87C0400A3
S11302B0417F7F08047C780000447D7D400000007D
S11302C040C484FD7D000000417F7F10386C4400F1
S11302D000417F7F400000007C7C0C180C7C78007F
S11302E07C7C04047C780000387C44447C38000026
S11302F084FCF8A4243C1800183C24A4F8FC8400D2
S1130300447C78441C180000485C54547424000055
S113031000043E7F442400003C7C40403C7C400080
S11303201C3C60603C1C00003C7C6030607C3C00F9
S1130330446C3810386C44009CBCA0A0FC7C0000C9
S11303404C64745C4C64000008083E774141000032
S113035000000077770000004141773E0808000064
S1130360020301030203010011241FBECFEFD4E0F6
S1130370DEBFCDBF12E0A0E0B1E0EAE2FEE102C0E0
S113038005900D92AA35B107D9F723E0AAE5B2E0AA
S113039001C01D92A439B207E1F70E9488050C94AC
S11303A0130F0C94000081B3806281BB8FB580650C
S11303B08FBD8EB589608EBD81E090E09BBD8ABD06
S11303C008958FEF8093001484E18A95F1F780E01B
S11303D090E00BC020910014FC01EE0FFF1FEF57BB
S11303E0FD4F30E03183208301968430910594F3EE
S11303F0089587EA91E60197F1F700C000000E9492
S1130400E101E1E8F2E02081318130936E02209332
S11304106D028281938190935E0280935D0230939A
S11304206A02209369029093800280937F02848100
S1130430958190936C0280936B028681978190934F
S113044068028093670208950E94E101E1E8F2E006
S11304508081918122813381992760916D0270910D
S11304606E0268177907B4F4AC01461B570BE4E637
S1130470E49FC001E59F900D11244FEF50E0FA0175
S1130480E61BF70BBF010E944E0A7093780260933B
S113049077020FC0AC01461B570BE4E6E49FC00192
S11304A0E59F900D11240E944E0A70937802609388
S11304B07702C901992760915D0270915E02681705
S11304C07907B4F49C01261B370B44E6429FC00114
S11304D0439F900D11242FEF30E0A901461B570BC9
S11304E0BA010E944E0A70937A02609379020895C9
S11304F09C01261B370B44E6429FC001439F900D8D
S113050011240E944E0A70937A026093790208952E
S11305100E942402E7E7F2E0208131818281938105
S1130520233331053CF023E030E030937C02209308
S11305307B020EC02E3C3F4F3CF422E030E030936F
S11305407C0220937B0204C010927C0210927B02F6
S1130550833391053CF081E090E090937E02809398
S11305607D0208958E3C9F4F3CF484E090E090938C
S11305707E0280937D02089510927E0210927D0285
S113058008950F931F93CF93DF93CDB7DEB72A97C8
S11305900FB6F894DEBF0FBECDBF0E942402209197
S11305A07702309178028091690290916A0228174B
S11305B0390709F54091790250917A0280917F02BE
S11305C09091800248175907B1F4409185025091E7
S11305D0860280916B0290916C024817590759F476
S11305E0409187025091880280916702909168023D
S11305F048175907F1F081E0898384E08A832C59F4
S11306002B83309179023C593C83E1E8F2E0448148
S11306104D8356815E8301E014E06F81788589857E
S11306209A850E94D40387EA91E60197F1F700C006
S11306300000E7E7F2E08081918190936A02809361
S11306406902828193819093800280937F02E1E822
S1130650F2E08481958190936C0280936B02868191
S1130660978190936802809367022A960FB6F89454
S1130670DEBF0FBECDBFDF91CF911F910F910895C3
S1130680CF93C82F88B38F7E88BB83E090E00E940D
S1130690440A8C2F90E00E94440A0E94480A98B3AE
S11306A0906198BBCF910895CF93DF93D82FC62F35
S11306B088B38F7E88BB82E090E00E94440A8D2F2D
S11306C090E00E94440A8C2F90E00E94440A88B370
S11306D0806188BBDF91CF910895877098B39F7E26
S11306E098BB806890E00E94440A88B3806188BB0C
S11306F008951F93CF93DF93182FD62FC42F88B359
S11307008F7E88BB85E090E00E94440A812F90E0B0
S11307100E94440A8D2F90E00E94440A8C2F90E09E
S11307200E94440A88B3806188BBDF91CF911F91F6
S1130730089588B38F7E88BB80EC90E00E94440AC1
S113074088B3806188BB08950E943A0A0E94990385
S11307508EE00E944003807E803831F087E091E093
S11307600E94D70A81E0089543E86FEF8AE20E946D
S1130770790349EF6FEF89E20E94790347E067EC60
S113078088E20E94790340E260E680E60E947903F1
S113079041E061E08BE20E94790340E060EE8FE08B
S11307A00E94790380E00895FF920F931F93CF93E3
S11307B0DF93CDB7DEB72A970FB6F894DEBF0FBE2E
S11307C0CDBF09831A832B833C834D835E836F8360
S11307D0788789879A8780E30E94400383FDFBCF53
S11307E0198180E2189FB001112482E30E9454030E
S11307F0612F66956695669581E30E945403FA809D
S11308006F2D85E30E94540300E010E013C0E3E081
S1130810F0E0EC0FFD1FE00FF11F608186E3800F15
S11308200E94540383EC99E00197F1F700C00000A3
S11308300F5F1F4F8F2D90E00817190744F381E0D5
S11308400E946D032A960FB6F894DEBF0FBECDBF8B
S1130850DF91CF911F910F91FF900895FF920F9315
S11308601F93CF93DF938C0183EC99E00197F1F709
S113087000C0000085E60E9440038F70F82EF80146
S1130880818383EC99E00197F1F700C0000081E6D1
S11308900E944003C82FD0E0CC0FDD1FCC0FDD1F1A
S11308A0CC0FDD1F82E60E944003829586958770F7
S11308B0C82BF801C083C0E0D0E00FC08C2F8A5948
S11308C00E944003F801EC0FFD1F828383EC99E042
S11308D00197F1F700C0000021968F2D90E0C81712
S11308E0D90764F340E061E08CE20E947903C80117
S11308F0DF91CF911F910F91FF9008959CBF80B914
S113090088E181B98EE88CBF0895159BFECF83B929
S11309100895179BFECF83B10895F89420B381E026
S113092090E0AC0102C0440F551F2A95E2F79A01EA
S11309302095309540B302C0880F991F4A95E2F77D
S1130940822B932B91B3892381BB86B18E7F86B989
S113095087B1816087B985B7806885BF85B78F60A7
S113096085BF86B786BF8BB7806E8BBF789408959A
S11309701F920F920FB60F9211248F9381E08093F0
S11309805C028F910F900FBE0F901F9018951F92CD
S11309900F920FB60F9211240F931F932F933F932F
S11309A04F935F936F937F938F939F93AF93BF9373
S11309B0EF93FF93809106018823C1F081E0282FF3
S11309C080938B020091890210918A0230918C02EB
S11309D040918D0250918E0260918F02709190022D
S11309E080919102909192020E94D40381E08093BD
S11309F05B02FF91EF91BF91AF919F918F917F9196
S1130A006F915F914F913F912F911F910F910F9093
S1130A100FBE0F901F9018951F920F920FB60F9252
S1130A201124EF92FF920F931F932F933F934F93B1
S1130A305F936F937F938F939F93AF93BF93EF9342
S1130A40FF93CF93DF93CDB7DEB72A97DEBFCDBF39
S1130A5087EA91E60197F1F700C00000CE01019604
S1130A600E942E0489819FEF980F9E31A0F59A81F0
S1130A70E92EF12C1F928F931F929F938BE391E0A9
S1130A809F938F930E94C10A0F900F900F900F9025
S1130A900F900F9000E010E01BC0E3E0F0E0EC0FDB
S1130AA0FD1FE00FF11F80811F928F938FE491E06F
S1130AB09F938F930E94C10A83EC99E00197F1F709
S1130AC000C000000F5F1F4F0F900F900F900F900A
S1130AD00E151F0514F32A960FB6F894DEBF0FBE49
S1130AE0CDBFDF91CF91FF91EF91BF91AF919F91D6
S1130AF08F917F916F915F914F913F912F911F91B2
S1130B000F91FF90EF900F900FBE0F901F901895CC
S1130B108FE190E00E947E0469E874E085E894E047
S1130B200E94760A0E94D3010E948D0480B78860D7
S1130B3080BF0E94F9010E9442090E94DF090E94BD
S1130B40A4030E94CB050E94B507E9E8F2E082E025
S1130B50808381E081830E9488020E94C102809187
S1130B605C02882321F00E94AC0810925C02809100
S1130B707D0290917E02009719F421E020935A029D
S1130B8020915A02222339F3892B29F30E94090662
S1130B9010925A02E0CF81E0809387031092880379
S1130BA010920C031092860310928903089580E03A
S1130BB00E94850988E10E94850988E10E948509CF
S1130BC088E10E9485098EE70E9485098CE30E94D2
S1130BD0850988E10E94850980E00E9485090895BD
S1130BE080E00E94850980E00E94850980E00E94DF
S1130BF0850980E00E94850980E00E94850980E0E3
S1130C000E94850980E00E94850980E00E94850990
S1130C1008951F93CF93DF930E94880210910D03D0
S1130C20C12FD0E0809187038823A1F1C230D10580
S1130C30B9F480917D0290917E028130910511F08A
S1130C40049771F487E080930D0360E00E94990992
S1130C500E94D70560E0812F0E9499090E94F00547
S1130C60C730D105B9F480917D0290917E02813024
S1130C70910511F0049771F482E080930D0360E014
S1130C800E9499090E94D70560E0812F0E9499096A
S1130C900E94F00580918803882309F485C0C2303E
S1130CA0D10551F580917D0290917E02049781F4E3
S1130CB0EDE0F3E080818F5F808360E00E9499091A
S1130CC00E94D70560E0812F0E9499090E94F005D7
S1130CD080917D0290917E02019771F487E0809368
S1130CE00D0360E00E9499090E94D70560E0812FFE
S1130CF00E9499090E94F005C330D10551F58091F5
S1130D007D0290917E02019781F4EDE0F3E0808111
S1130D108150808360E00E9499090E94D70560E0B9
S1130D20812F0E9499090E94F00580917D02909183
S1130D307E02049771F487E080930D0360E00E94C3
S1130D4099090E94D70560E0812F0E9499090E94A9
S1130D50F005C730D10541F580917D0290917E0266
S1130D60019771F483E080930D0360E00E94990978
S1130D700E94D70560E0812F0E9499090E94F00526
S1130D8080917D0290917E02049771F482E08093B9
S1130D900D0360E00E9499090E94D70560E0812F4D
S1130DA00E9499090E94F00580910C03882309F49C
S1130DB0B1C0C230D10551F580917D0290917E027F
S1130DC0019771F487E080930D0360E00E94990914
S1130DD00E94D70560E0812F0E9499090E94F005C6
S1130DE080917D0290917E02049781F4EDE0F3E01E
S1130DF080818F5F808360E00E9499090E94D705FB
S1130E0060E0812F0E9499090E94F005C330D1054A
S1130E1061F580917D0290917E02049781F4EDE06A
S1130E20F3E080818F5F808360E00E9499090E94D3
S1130E30D70560E0812F0E9499090E94F0058091F6
S1130E407D0290917E02019781F4EDE0F3E08081D0
S1130E508150808360E00E9499090E94D70560E078
S1130E60812F0E9499090E94F005C430D10541F5F3
S1130E7080917D0290917E02019771F483E08093CA
S1130E800D0360E00E9499090E94D70560E0812F5C
S1130E900E9499090E94F00580917D0290917E0242
S1130EA0049771F487E080930D0360E00E94990930
S1130EB00E94D70560E0812F0E9499090E94F005E5
S1130EC0279741F580917D0290917E02019771F4FC
S1130ED084E080930D0360E00E9499090E94D70585
S1130EE060E0812F0E9499090E94F00580917D02A3
S1130EF090917E02049771F482E080930D0360E088
S1130F000E9499090E94D70560E0812F0E949909E7
S1130F100E94F005DF91CF911F910895CF93DF9345
S1130F200E94A2098DE193E00E94C209C1E0D0E0D1
S1130F300FC06AE08C2F0E94990921962FE02C9F04
S1130F40C0012D9F900D1124825F9C4F0E94C20905
S1130F50C830D10574F360E080910D030E949909B3
S1130F600E94D705DF91CF9108958FE0E2ECF1E084
S1130F70ADE1B3E001900D928A95E1F780E290E053
S1130F8090932D0380932C0325E0E1EBF1E0ABE398
S1130F90B3E001900D922A95E1F790934B0380936F
S1130FA04A0390935A03809359039093690380935F
S1130FB0680390937803809377038CE0E6EBF1E089
S1130FC0A6E8B3E001900D928A95E1F782E0809360
S1130FD00D030E948E07089581E1E1EDF1E0ADE19A
S1130FE0B3E001900D928A95E1F780E290E090934E
S1130FF02D0380932C032CE0E2EEF1E0ABE3B3E0AD
S113100001900D922A95E1F72CE0EEEEF1E0AAE4CE
S1131010B3E001900D922A95E1F790935A038093DF
S113102059039093690380936803909378038093A2
S1131030770385E0EAEFF1E0A6E8B3E001900D92D2
S11310408A95E1F782E080930D030E948E0708954C
S1131050CF93DF9381E1EFEFF1E0ADE1B3E00190F5
S11310600D928A95E1F7CDE0D3E01F8E85E0E0E1B3
S1131070F2E0ABE3B3E001900D928A95E1F787E0EB
S1131080E5E1F2E0AAE4B3E001900D928A95E1F77C
S113109085E0ECE1F2E0A9E5B3E001900D928A95D8
S11310A0E1F7109268031092770385E0EAEFF1E02C
S11310B0A6E8B3E001900D928A95E1F782E0888377
S11310C00E948E07DF91CF9108958FE0EBE4F2E068
S11310D0ADE1B3E001900D928A95E1F78BE0E1E296
S11310E0F2E0ACE2B3E001900D928A95E1F785E07D
S11310F0ECE2F2E0ABE3B3E001900D928A95E1F704
S113110080E290E090934B0380934A032DE0E1E367
S1131110F2E0A9E5B3E001900D922A95E1F7E8E643
S1131120F3E021E333E73183208324E730E03383A2
S1131130228390937803809377038DE0EEE3F2E0CB
S1131140A6E8B3E001900D928A95E1F787E08093D9
S11311500D030E948E07089580910D0390E0209165
S11311608703222379F08230910561F40E94DF091C
S11311700E94EC070E94EC071092870381E08093A1
S11311808803089520918803222369F18230910510
S113119061F40E94DF090E9428080E942808109226
S11311A0880381E080930C0308958330910561F4F2
S11311B00E94DF090E9428080E94280810928803D0
S11311C081E080930C0308958730910561F40E94B7
S11311D0DF090E94B5070E94B5071092880381E0D9
S11311E080938703089520910C032223B1F1823068
S11311F0910551F40E94DF090E94650810920C03C6
S113120081E08093860308958330910551F40E9410
S1131210DF090E94650810920C0381E08093860325
S113122008958430910551F40E94DF090E946508F5
S113123010920C0381E08093860308958730910512
S113124061F40E94DF090E94EC070E94EC071092EF
S11312500C0381E080938803089520918603222360
S113126069F0079759F40E94DF090E94B5070E94AC
S1131270B5071092860381E08093870308958093D5
S1131280001008958EEA0E943F0981EA0E943F09F6
S11312908AED0E943F0982E10E943F0988EC0E9486
S11312A03F0988EA0E943F098FE30E943F0985EDC8
S11312B00E943F0980E80E943F0981E80E943F099B
S11312C080E50E943F0989ED0E943F0981E20E9466
S11312D03F0980E20E943F0982E00E943F098BEDB2
S11312E00E943F0980E30E943F098DEA0E943F0962
S11312F080E00E943F0984EA0E943F0986EA0E9436
S11313003F098FEA0E943F090895809300120895CF
S1131310806B0E943F090895CF93C82FCF708295A8
S11313208F7080610E943F098C2F0E943F09CF91EA
S11313300895CF93C62F0E9488098C2F0E948C0990
S1131340CF91089560E080E00E9499090895CF93B9
S1131350DF93D82FC0E011C0ED2FF0E0B097EE0F6F
S1131360FF1FEE0FFF1FEE0FFF1FEC0FF11DE059E3
S1131370FF4F84910E948509CF5FC83068F3DF91E5
S1131380CF9108951F93CF93DF93EC0110E007C032
S1131390FE01E80FF91F80810E94A7091F5F812FBA
S11313A090E0FE0101900020E9F73197EC1BFD0B62
S11313B08E179F0768F3DF91CF911F910895CF9304
S11313C080EB0E943F09C0E004C080E00E948509D0
S11313D0CF5FCC23D4F781EB0E943F09C0E004C067
S11313E080E00E948509CF5FCC23D4F782EB0E9472
S11313F03F09C0E004C080E00E948509CF5FCC2390
S1131400D4F783EB0E943F09C0E004C080E00E944F
S11314108509CF5FCC23D4F784EB0E943F09C0E059
S113142004C080E00E948509CF5FCC23D4F785EB0C
S11314300E943F09C0E004C080E00E948509CF5F9C
S1131440CC23D4F786EB0E943F09C0E004C080E0BF
S11314500E948509CF5FCC23D4F787EB0E943F0914
S1131460C0E004C080E00E948509CF5FCC23D4F79C
S1131470CF91089587B3806B87BB8DB181658DB99A
S113148088B3806188BB08958FB9779BFECF089598
S11314908FEF8FB9779BFECF8FB1089597FB072EFF
S11314A016F4009407D077FD09D00E94620A07FC65
S11314B005D03EF4909581959F4F08957095619560
S11314C07F4F0895AA1BBB1B51E107C0AA1FBB1F76
S11314D0A617B70710F0A61BB70B881F991F5A95BC
S11314E0A9F780959095BC01CD0108950F931F93A2
S11314F0CF93DF93009731F46115710519F480E0FF
S113150090E03AC08B01EC016EE070E081E090E085
S11315100E94E80CFC01892B91F380E88383011578
S1131520110571F01387028781E8838380918A0310
S113153090918B03892B21F4F0938B03E0938A031E
S11315402097C9F0D187C08783818260838380918B
S11315508C0390918D03892B71F4F0938D03E093A8
S11315608C0380918E0390918F03892B21F4F09347
S11315708F03E0938E03CF01DF91CF911F910F91E1
S11315800895A0E0B0E0E7ECFAE00C94EC0EAE01B4
S11315904B5F5F4FFA0161917191AF0180918C03B0
S11315A090918D030E94070BE2E00C94080F0F93B7
S11315B01F93CF93DF93E0918C03F0918D032381EC
S11315C021FF1BC08C01D0E0C0E0F80181918F01A4
S11315D060918C0370918D03DB011896ED91FC9161
S11315E01997882331F00995892B79F3DFEFCFEF31
S11315F0ECCF8AE00995892B19F08FEF9FEF02C099
S11316008D2F9C2FDF91CF911F910F910895ABE007
S1131610B0E0EDE0FBE00C94DC0E6C017B018A0190
S1131620FC0117821682838181FFCCC1CE01019611
S11316303C01F6019381F70193FD859193FF81911C
S11316407F01882309F4BAC1853239F493FD859169
S113165093FF81917F01853229F4B60190E00E94C5
S1131660420EE7CF912C212C312CFFE1F315D8F059
S11316708B3279F038F4803279F08332A1F4232D5F
S113168020611DC08D3261F0803369F4232D216007
S113169016C0832D8260382EE32DE4603E2E2AC0CE
S11316A0F32DF8601DC037FC2DC020ED280F2A3023
S11316B040F08E32B9F436FC81C1232D2064322EE1
S11316C019C036FE06C08AE0989E200D1124922E81
S11316D011C0EAE02E9E200D1124222EF32DF0627B
S11316E03F2E08C08C3621F4832D8068382E02C02A
S11316F0883641F4F70193FD859193FF81917F0131
S11317008111B3CF982F9F7D9554933028F40C5FAB
S11317101F4F9FE399830DC0833631F0833771F0F7
S1131720833509F059C021C0F801808189830E5F97
S11317301F4F88248394912C530113C02801F2E095
S11317404F0E511CF801A080B18036FE03C0692DF4
S113175070E002C06FEF7FEFC5010E94370E4C01AD
S11317608201F32DFF773F2E16C0280122E0420E9E
S1131770511CF801A080B18036FE03C0692D70E0D1
S113178002C06FEF7FEFC5010E94250E4C01F32DBF
S1131790F0683F2E820133FC1BC0822D90E0881636
S11317A09906B0F4B60180E290E00E94420E2A94B9
S11317B0F4CFF50137FC859137FE81915F01B601C5
S11317C090E00E94420E21102A9421E0821A91088E
S11317D08114910471F7E8C0843611F0893641F51B
S11317E0F80137FE07C060817181828193810C5FAB
S11317F01F4F08C060817181072E000C880B990B64
S11318000E5F1F4FF32DFF763F2E97FF09C0909573
S11318108095709561957F4F8F4F9F4FF0683F2E55
S11318202AE030E0A3010E947E0E882E861845C06F
S1131830853731F4232D2F7EB22E2AE030E025C0E7
S1131840932D997FB92E8F36C1F018F4883579F02D
S1131850B5C0803719F0883721F0B0C0E92FE061B6
S1131860BE2EB4FE0DC0FB2DF460BF2E09C034FEA5
S11318700AC0292F2660B22E06C028E030E005C039
S113188020E130E002C020E132E0F801B7FE07C0F9
S113189060817181828193810C5F1F4F06C06081DA
S11318A0718180E090E00E5F1F4FA3010E947E0EC5
S11318B0882E8618FB2DFF773F2E36FE0DC0232D74
S11318C02E7FA22E891458F434FE0BC032FC09C0BA
S11318D0832D8E7EA82E05C0B82CA32C03C0B82C53
S11318E001C0B92CA4FE0FC0FE01E80DF11D8081DA
S11318F0803321F49A2D997EA92E09C0A2FE06C038
S1131900B394B39404C08A2D867809F0B394A3FCED
S113191011C0A0FE06C0B21488F4280C922C9B18A7
S11319200EC0B21460F4B60180E290E00E94420E50
S1131930B394F7CFB21418F42B1802C0982C212CAE
S1131940A4FE10C0B60180E390E00E94420EA2FE05
S113195017C0A1FC03C088E790E002C088E590E0CE
S1131960B6010CC08A2D867859F0A1FE02C08BE224
S113197001C080E2A7FC8DE2B60190E00E94420E15
S1131980891438F4B60180E390E00E94420E9A94E0
S1131990F7CF8A94F301E80DF11D8081B60190E040
S11319A00E94420E8110F5CF222009F442CEB601E6
S11319B080E290E00E94420E2A94F6CFF6018681DE
S11319C0978102C08FEF9FEF2B96E2E10C94F80E03
S11319D00F931F93CF93DF93869F8001879F100DF2
S11319E0969F100D1124C8010E94040DEC0100976C
S11319F029F0A80160E070E00E94300ECE01DF9172
S1131A00CF911F910F9108950F931F93CF93DF935D
S1131A108230910510F482E090E0E0919203F0911D
S1131A20930320E030E0A0E0B0E0309719F140816A
S1131A3051810281138148175907C8F0841795070B
S1131A4069F4109731F012960C93129713961C9325
S1131A5027C0009392031093930322C021153105EC
S1131A6019F04217530718F49A01BD01EF01DF0181
S1131A70F801DBCF21153105F9F0281B390B24308F
S1131A80310580F48A819B816115710521F0FB0188
S1131A909383828304C09093930380939203FE0103
S1131AA0329644C0FE01E20FF31F819391932250BA
S1131AB03109398328833AC02091900330919103EE
S1131AC0232B41F4209102013091030130939103BF
S1131AD020939003209100013091010121153105DB
S1131AE041F42DB73EB74091040150910501241BE8
S1131AF0350BE0919003F0919103E217F307A0F402
S1131B002E1B3F0B2817390778F0AC014E5F5F4F4F
S1131B102417350748F04E0F5F1F509391034093ED
S1131B2090038193919302C0E0E0F0E0CF01DF9154
S1131B30CF911F910F910895CF93DF93009709F4EC
S1131B4081C0FC01329713821282A0919203B0915A
S1131B509303109781F420813181820F931F209188
S1131B609003309191032817390751F5F0939103AD
S1131B70E093900367C0ED0120E030E0CE17DF076B
S1131B8040F44A815B819E0141155105F1F0EA015F
S1131B90F5CFD383C28340815181840F951FC81729
S1131BA0D90759F488819981840F951F02969183EE
S1131BB080838A819B81938382832115310529F453
S1131BC0F0939303E09392033DC0E901FB83EA831E
S1131BD049915991C40FD51FEC17FD0761F4808119
S1131BE09181840F951F0296E901998388838281EC
S1131BF093819B838A83E0E0F0E012968D919C911F
S1131C001397009719F0FD01DC01F7CF8D919C919A
S1131C1011979D012E5F3F4F820F931F20919003D8
S1131C20309191032817390769F4309729F41092F9
S1131C3093031092920302C013821282B093910311
S1131C40A0939003DF91CF910895FC01059061501A
S1131C5070400110D8F7809590958E0F9F1F0895BE
S1131C60DC0101C06D9341505040E0F70895FC0140
S1131C706150704001900110D8F7809590958E0FB7
S1131C809F1F08950F931F93CF93DF93FB0123812D
S1131C9021FD03C08FEF9FEF2CC022FF16C04681A9
S1131CA05781248135814217530744F4A081B181BF
S1131CB09D012F5F3F4F318320838C932681378191
S1131CC02F5F3F4F3783268314C08B01EC01FB0148
S1131CD00084F185E02D0995892BE1F6D80116964B
S1131CE08D919C911797019617969C938E931697B6
S1131CF0CE01DF91CF911F910F910895FA01AA2788
S1131D00283051F1203181F1E8946F936E7F6E5F3A
S1131D107F4F8F4F9F4FAF4FB1E03ED0B4E03CD0E8
S1131D20670F781F891F9A1FA11D680F791F8A1FCB
S1131D30911DA11D6A0F711D811D911DA11D20D032
S1131D4009F468943F912AE0269F11243019305DEC
S1131D503193DEF6CF010895462F4770405D4193DD
S1131D60B3E00FD0C9F7F6CF462F4F70405D4A332A
S1131D7018F0495D31FD4052419302D0A9F7EACFF2
S1131D80B4E0A6959795879577956795BA95C9F721
S1131D9000976105710508959B01AC010A2E069414
S1131DA05795479537952795BA95C9F7620F731FCD
S1131DB0841F951FA01D08952F923F924F925F920A
S1131DC06F927F928F929F92AF92BF92CF92DF9247
S1131DD0EF92FF920F931F93CF93DF93CDB7DEB7AC
S1131DE0CA1BDB0B0FB6F894DEBF0FBECDBF099440
S1131DF02A88398848885F846E847D848C849B8497
S1131E00AA84B984C884DF80EE80FD800C811B81A4
S1131E10AA81B981CE0FD11D0FB6F894DEBF0FBED3
S10D1E20CDBFED010895F894FFCF43
S1131E2A00009403200001204D43503235313520FF
S1131E3A6973204E4F5420696E20636F6E6669671A
S1131E4A75726174696F6E206D6F64652061667462
S1131E5A65722072657365742021006C656E3A2080
S1131E6A25692C2069643A202569200D200A00443A
S1131E7A4154413A202569200D200A00656C656D9C
S1131E8A656E74203100656C656D656E7420320070
S1131E9A656C656D656E74203300656C656D656E81
S1131EAA74203400656C656D656E74203500656C4C
S1131EBA656D656E74203600656C656D656E74209B
S1131ECA37002D2D2D2D2D4D454E552D2D2D2D2DD6
S1131EDA00504C4159004C4541444552424F4152ED
S1131EEA4400202D204D41494E204D454E55202D6C
S1131EFA002D2047414D45204D4F4445533A202D4E
S1131F0A20004E6F726D616C206D6F6465004172C2
S1131F1A63616465206D6F6465004261636B0020D0
S1131F2A2D20444946464943554C5459202D2000F6
S1131F3A45617379004E6F726D616C004861726419
S1131F4A00596F75722054696D653A00313A343517
S1131F5A004C6561646572626F6172643A00457827
S1131F6A697420746F206D656E7500202D204741B9
S10D1F7A4D45204F564552202D001E
S9030000FC
