S010000047727570706534342E7372656339
S11300000C94B4010C94B6020C94DC020C9402031C
S11300100C94D1010C94D1010C94D1010C94D10114
S11300200C94D1010C94D1010C94D1010C94D10104
S11300300C94D1010C94D1010C94D1010C94D101F4
S11300400C94D1010C94D1010C94D1010C94D101E4
S11300500C94D1010C94D1010C94D1010C94D101D4
S11300600C94D1010C94D1010C94D1010C94D101C4
S1130070000000000000000000065F5F06000000B2
S11300800007070007070000147F7F147F7F140018
S1130090242E6B6B3A120000466630180C66620020
S11300A0307A4F5D377A48000407030000000000EF
S11300B0001C3E63410000000041633E1C00000040
S11300C0082A3E1C1C3E2A0808083E3E0808000078
S11300D000A0E0600000000008080808080800000C
S11300E000006060000000006030180C060301008E
S11300F03E7F594D7F3E000042427F7F40400000DA
S1130100627359496F660000226349497F360000D3
S1130110181C16137F7F1000276745457D390000A2
S11301203C7E4B4979300000036371190F070000CE
S1130130367F49497F360000064F49693F1E00005B
S113014000006C6C0000000000A0EC6C00000000DB
S1130150081C366341000000141414141414000025
S1130160004163361C080000020351590F060000C9
S11301703E7F415D5D1F1E007C7E13137E7C00006C
S1130180417F7F49497F36001C3E63414163220021
S1130190417F7F41637F1C00417F7F495D41630054
S11301A0417F7F491D0103001C3E6341517372006E
S11301B07F7F08087F7F000000417F7F41000000AF
S11301C0307040417F3F0100417F7F081C7763000E
S11301D0417F7F41406070007F7F060C067F7F0077
S11301E07F7F060C187F7F001C3E6341633E1C002A
S11301F0417F7F49090F06001E3F21717F5E000089
S1130200417F7F19396F460026674D597B320000C4
S113021003417F7F410300007F7F40407F7F0000D8
S11302201F3F60603F1F00007F7F3018307F7F00DA
S113023063771C081C776300074F78784F0700002A
S11302406773594D47637100007F7F41410000008F
S11302500103060C183060000041417F7F0000005C
S1130260080C0603060C0800808080808080808053
S11302700000030704000000207454543C7840003C
S1130280413F7F44447C3800387C44446C2800005F
S1130290307848493F7F4000387C54545C18000053
S11302A0487E7F490302000098BCA4A4F87C0400A3
S11302B0417F7F08047C780000447D7D400000007D
S11302C040C484FD7D000000417F7F10386C4400F1
S11302D000417F7F400000007C7C0C180C7C78007F
S11302E07C7C04047C780000387C44447C38000026
S11302F084FCF8A4243C1800183C24A4F8FC8400D2
S1130300447C78441C180000485C54547424000055
S113031000043E7F442400003C7C40403C7C400080
S11303201C3C60603C1C00003C7C6030607C3C00F9
S1130330446C3810386C44009CBCA0A0FC7C0000C9
S11303404C64745C4C64000008083E774141000032
S113035000000077770000004141773E0808000064
S1130360020301030203010011241FBECFEFD4E0F6
S1130370DEBFCDBF11E0A0E0B1E0EAECF4E102C0E1
S113038005900D92A838B107D9F722E0A8E8B1E0AA
S113039001C01D92AF31B207E1F70E9432030C9401
S11303A0630A0C94000081B3806281BB8FB58065C1
S11303B08FBD8EB589608EBD81E090E09BBD8ABD06
S11303C008958FEF8093001484E18A95F1F780E01B
S11303D090E00BC020910014FC01EE0FFF1FEC56BF
S11303E0FE4F30E03183208301968430910594F3ED
S11303F008950E94E101E4E9F1E080819181909304
S11304008B0180938A0182819381909389018093E7
S1130410880108950E94E101E4E9F1E0808191817D
S113042022813381992760918A0170918B01681729
S11304307907B4F4AC01461B570BE4E6E49FC00112
S1130440E59F900D11244FEF50E0FA01E61BF70BE6
S1130450BF010E949E0570938D0160938C010FC0B3
S1130460AC01461B570BE4E6E49FC001E59F900DE9
S113047011240E949E0570938D0160938C01C90123
S11304809927609188017091890168177907B4F4FC
S11304909C01261B370B44E6429FC001439F900DED
S11304A011242FEF30E0A901461B570BBA010E941B
S11304B09E0570938F0160938E0108959C01261B05
S11304C0370B44E6429FC001439F900D11240E94C4
S11304D09E0570938F0160938E0108950E940A0215
S11304E0ECE8F1E020813181828193812B30310568
S11304F03CF023E030E030939101209390010EC052
S1130500263F3F4F3CF422E030E0309391012093AA
S1130510900104C010929101109290018B309105CA
S11305203CF081E090E090939301809392010895D0
S1130530863F9F4F3CF484E090E090939301809336
S113054092010895109293011092920108959CBF14
S113055080B988E181B98EE88CBF0895159BFECFE0
S113056083B90895179BFECF83B108951F920F920C
S11305700FB60F9211242F933F934F935F936F9372
S11305807F938F939F93AF93BF93EF93FF9386E0F3
S113059091E00E942706FF91EF91BF91AF919F9147
S11305A08F917F916F915F914F913F912F910F9018
S11305B00FBE0F901F9018951F920F920FB60F92B7
S11305C011242F933F934F935F936F937F938F9354
S11305D09F93AF93BF93EF93FF9386E191E00E94C3
S11305E02706FF91EF91BF91AF919F918F917F91DA
S11305F06F915F914F913F912F910F900FBE0F908C
S11306001F9018951F920F920FB60F9211242F93DB
S11306103F934F935F936F937F938F939F93AF9386
S1130620BF93EF93FF9380919C011F928F9385E278
S113063091E09F938F930E9411060F900F900F905B
S11306400F90FF91EF91BF91AF919F918F917F9107
S11306506F915F914F913F912F910F900FBE0F902B
S11306601F9018958FE190E00E94A70262EB72E060
S11306708EEA92E00E94C6050E94D30120B381E075
S113068090E0AC0102C0440F551F2A95E2F79A018D
S11306902095309540B302C0880F991F4A95E2F720
S11306A0822B932B91B3892381BB86B18E7F86B92C
S11306B087B1816087B985B7806885BF85B78F604A
S11306C085BF86B786BF8BB7806E8BBF80B78860C7
S11306D080BF78940E94F9010E94F6030E944305AA
S11306E08FE0E9E7F1E0ADE9B1E001900D928A9580
S11306F0E1F78AE0E3E3F1E0ACEAB1E001900D92C6
S11307008A95E1F78AE0EDE3F1E0ABEBB1E001902B
S11307100D928A95E1F78AE0E7E4F1E0AAECB1E012
S113072001900D928A95E1F78AE0E1E5F1E0A9ED07
S1130730B1E001900D928A95E1F78AE0EBE5F1E0F2
S1130740A8EEB1E001900D928A95E1F78AE0E5E622
S1130750F1E0A7EFB1E001900D928A95E1F78AE00C
S1130760EFE6F1E0A6E0B2E001900D928A95E1F7A0
S113077081E080939C010E946E028091920190918D
S113078093018430910541F420919C01273021F498
S113079081E080939C011BC08430910531F4ECE925
S11307A0F1E080818F5F808312C08130910541F434
S11307B020919C01213021F487E080939C0107C0A3
S11307C0019729F4ECE9F1E08081815080830E9453
S11307D0C5045FEF81EE94E0515080409040E1F712
S11307E000C00000C8CF8093001008958EEA0E94D4
S11307F0F30381EA0E94F3038AED0E94F30382E18A
S11308000E94F30388EC0E94F30388EA0E94F30336
S11308108FE30E94F30385ED0E94F30380E80E94B6
S1130820F30381E80E94F30380E50E94F30389ED5A
S11308300E94F30381E20E94F30380E20E94F30327
S113084082E00E94F3038BED0E94F30380E30E9495
S1130850F3038DEA0E94F30380E00E94F30384EA29
S11308600E94F30386EA0E94F3038FEA0E94F303D3
S11308700895809300120895806B0E94F3030895F5
S1130880CF93C82FCF7082958F7080610E94F3033D
S11308908C2F0E94F303CF910895CF93C62F0E940B
S11308A03C048C2F0E944004CF91089560E080E0C6
S11308B00E944D040895CF93DF93D82FC0E011C058
S11308C0ED2FF0E0B097EE0FFF1FEE0FFF1FEE0FBE
S11308D0FF1FEC0FF11DE059FF4F84910E94390472
S11308E0CF5FC83068F3DF91CF9108951F93CF9302
S11308F0DF93EC0110E007C0FE01E80FF91F8081CF
S11309000E945B041F5F812F90E0FE010190002094
S1130910E9F73197EC1BFD0B8E179F0768F3DF9106
S1130920CF911F91089580E00E94390488E10E94CC
S1130930390488E10E94390488E10E9439048EE771
S11309400E9439048CE30E94390488E10E9439042E
S113095080E00E943904089580E00E94390480E018
S11309600E94390480E00E94390480E00E94390426
S113097080E00E94390480E00E94390480E00E94F3
S1130980390480E00E94390408950E9456048DE9D8
S113099091E00E94760460E081E00E944D04809121
S11309A09C01813019F40E94930402C00E94AC049B
S11309B08CEA91E00E94760460E082E00E944D049B
S11309C080919C01823019F40E94930402C00E9419
S11309D0AC048BEB91E00E94760460E083E00E941B
S11309E04D0480919C01833019F40E94930402C049
S11309F00E94AC048AEC91E00E94760460E084E0FA
S1130A000E944D0480919C01843019F40E94930447
S1130A1002C00E94AC0489ED91E00E94760460E07B
S1130A2085E00E944D0480919C01853019F40E9458
S1130A30930402C00E94AC0488EE91E00E94760404
S1130A4060E086E00E944D0480919C01863019F498
S1130A500E94930402C00E94AC0487EF91E00E94BC
S1130A60760460E087E00E944D0480919C01873009
S1130A7019F40E94930402C00E94AC0486E092E040
S1130A800E9476040895CF9380EB0E94F303C0E0A4
S1130A9004C080E00E943904CF5FCC23D4F781EBFB
S1130AA00E94F303C0E004C080E00E943904CF5FD9
S1130AB0CC23D4F782EB0E94F303C0E004C080E0AF
S1130AC00E943904CF5FCC23D4F783EB0E94F30355
S1130AD0C0E004C080E00E943904CF5FCC23D4F787
S1130AE084EB0E94F303C0E004C080E00E94390458
S1130AF0CF5FCC23D4F785EB0E94F303C0E004C09E
S1130B0080E00E943904CF5FCC23D4F786EB0E94A7
S1130B10F303C0E004C080E00E943904CF5FCC231B
S1130B20D4F787EB0E94F303C0E004C080E00E9486
S1130B303904CF5FCC23D4F7CF91089597FB072EC8
S1130B4016F4009407D077FD09D00E94B20507FC83
S1130B5005D03EF4909581959F4F089570956195C9
S1130B607F4F0895AA1BBB1B51E107C0AA1FBB1FDF
S1130B70A617B70710F0A61BB70B881F991F5A9525
S1130B80A9F780959095BC01CD0108950F931F930B
S1130B90CF93DF93009731F46115710519F480E068
S1130BA090E03AC08B01EC016EE070E081E090E0EF
S1130BB00E943808FC01892B91F380E88383011596
S1130BC0110571F01387028781E8838380911502F0
S1130BD090911602892B21F4F0931602E0931502EA
S1130BE02097C9F0D187C0878381826083838091F5
S1130BF0170290911802892B71F4F0931802E09374
S1130C0017028091190290911A02892B21F4F09312
S1130C101A02E0931902CF01DF91CF911F910F9136
S1130C200895A0E0B0E0E7E1F6E00C943C0AAE01E0
S1130C304B5F5F4FFA0161917191AF01809117028F
S1130C40909118020E945706E2E00C94580A0F9300
S1130C501F93CF93DF93E0911702F0911802238141
S1130C6021FF1BC08C01D0E0C0E0F80181918F010D
S1130C706091170270911802DB011896ED91FC91B6
S1130C801997882331F00995892B79F3DFEFCFEF9A
S1130C90ECCF8AE00995892B19F08FEF9FEF02C002
S1130CA08D2F9C2FDF91CF911F910F910895ABE071
S1130CB0B0E0EDE5F6E00C942C0A6C017B018A01AE
S1130CC0FC0117821682838181FFCCC1CE0101967B
S1130CD03C01F6019381F70193FD859193FF819186
S1130CE07F01882309F4BAC1853239F493FD8591D3
S1130CF093FF81917F01853229F4B60190E00E942F
S1130D009209E7CF912C212C312CFFE1F315D8F077
S1130D108B3279F038F4803279F08332A1F4232DC8
S1130D2020611DC08D3261F0803369F4232D216070
S1130D3016C0832D8260382EE32DE4603E2E2AC037
S1130D40F32DF8601DC037FC2DC020ED280F2A308C
S1130D5040F08E32B9F436FC81C1232D2064322E4A
S1130D6019C036FE06C08AE0989E200D1124922EEA
S1130D7011C0EAE02E9E200D1124222EF32DF062E4
S1130D803F2E08C08C3621F4832D8068382E02C093
S1130D90883641F4F70193FD859193FF81917F019A
S1130DA08111B3CF982F9F7D9554933028F40C5F15
S1130DB01F4F9FE399830DC0833631F0833771F061
S1130DC0833509F059C021C0F801808189830E5F01
S1130DD01F4F88248394912C530113C02801F2E0FF
S1130DE04F0E511CF801A080B18036FE03C0692D5E
S1130DF070E002C06FEF7FEFC5010E9487094C01CC
S1130E008201F32DFF773F2E16C0280122E0420E07
S1130E10511CF801A080B18036FE03C0692D70E03A
S1130E2002C06FEF7FEFC5010E9475094C01F32DDD
S1130E30F0683F2E820133FC1BC0822D90E088169F
S1130E409906B0F4B60180E290E00E9492092A94D7
S1130E50F4CFF50137FC859137FE81915F01B6012E
S1130E6090E00E94920921102A9421E0821A9108AC
S1130E708114910471F7E8C0843611F0893641F584
S1130E80F80137FE07C060817181828193810C5F14
S1130E901F4F08C060817181072E000C880B990BCD
S1130EA00E5F1F4FF32DFF763F2E97FF09C09095DD
S1130EB08095709561957F4F8F4F9F4FF0683F2EBF
S1130EC02AE030E0A3010E94CE09882E861845C08E
S1130ED0853731F4232D2F7EB22E2AE030E025C051
S1130EE0932D997FB92E8F36C1F018F4883579F097
S1130EF0B5C0803719F0883721F0B0C0E92FE06120
S1130F00BE2EB4FE0DC0FB2DF460BF2E09C034FE0E
S1130F100AC0292F2660B22E06C028E030E005C0A2
S1130F2020E130E002C020E132E0F801B7FE07C062
S1130F3060817181828193810C5F1F4F06C0608143
S1130F40718180E090E00E5F1F4FA3010E94CE09E3
S1130F50882E8618FB2DFF773F2E36FE0DC0232DDD
S1130F602E7FA22E891458F434FE0BC032FC09C023
S1130F70832D8E7EA82E05C0B82CA32C03C0B82CBC
S1130F8001C0B92CA4FE0FC0FE01E80DF11D808143
S1130F90803321F49A2D997EA92E09C0A2FE06C0A1
S1130FA0B394B39404C08A2D867809F0B394A3FC57
S1130FB011C0A0FE06C0B21488F4280C922C9B1811
S1130FC00EC0B21460F4B60180E290E00E9492096F
S1130FD0B394F7CFB21418F42B1802C0982C212C18
S1130FE0A4FE10C0B60180E390E00E949209A2FE24
S1130FF017C0A1FC03C088E790E002C088E590E038
S1131000B6010CC08A2D867859F0A1FE02C08BE28D
S113101001C080E2A7FC8DE2B60190E00E94920933
S1131020891438F4B60180E390E00E9492099A94FE
S1131030F7CF8A94F301E80DF11D8081B60190E0A9
S11310400E9492098110F5CF222009F442CEB60104
S113105080E290E00E9492092A94F6CFF6018681FC
S1131060978102C08FEF9FEF2B96E2E10C94480A20
S11310700F931F93CF93DF93869F8001879F100D5B
S1131080969F100D1124C8010E945408EC0100978A
S113109029F0A80160E070E00E948009CE01DF9190
S11310A0CF911F910F9108950F931F93CF93DF93C7
S11310B08230910510F482E090E0E0911D02F091FD
S11310C01E0220E030E0A0E0B0E0309719F140814A
S11310D051810281138148175907C8F08417950775
S11310E069F4109731F012960C93129713961C938F
S11310F027C000931D0210931E0222C02115310542
S113110019F04217530718F49A01BD01EF01DF01EA
S1131110F801DBCF21153105F9F0281B390B2430F8
S1131120310580F48A819B816115710521F0FB01F1
S11311309383828304C090931E0280931D02FE0158
S1131140329644C0FE01E20FF31F81939193225023
S11311503109398328833AC020911B0230911C0243
S1131160232B41F4209102013091030130931C029E
S113117020931B02209100013091010121153105BA
S113118041F42DB73EB74091040150910501241B51
S1131190350BE0911B02F0911C02E217F307A0F457
S11311A02E1B3F0B2817390778F0AC014E5F5F4FB9
S11311B02417350748F04E0F5F1F50931C024093CD
S11311C01B028193919302C0E0E0F0E0CF01DF9134
S11311D0CF911F910F910895CF93DF93009709F456
S11311E081C0FC01329713821282A0911D02B0913A
S11311F01E02109781F420813181820F931F209168
S11312001B0230911C022817390751F5F0931C0278
S1131210E0931B0267C0ED0120E030E0CE17DF074A
S113122040F44A815B819E0141155105F1F0EA01C8
S1131230F5CFD383C28340815181840F951FC81792
S1131240D90759F488819981840F951F0296918357
S113125080838A819B81938382832115310529F4BC
S1131260F0931E02E0931D023DC0E901FB83EA8373
S113127049915991C40FD51FEC17FD0761F4808182
S11312809181840F951F0296E90199838883828155
S113129093819B838A83E0E0F0E012968D919C9188
S11312A01397009719F0FD01DC01F7CF8D919C9104
S11312B011979D012E5F3F4F820F931F20911B02B8
S11312C030911C022817390769F4309729F41092D9
S11312D01E0210921D0202C013821282B0931C02DD
S11312E0A0931B02DF91CF910895FC0105906150FA
S11312F070400110D8F7809590958E0F9F1F089528
S1131300DC0101C06D9341505040E0F70895FC01A9
S11313106150704001900110D8F7809590958E0F20
S11313209F1F08950F931F93CF93DF93FB01238196
S113133021FD03C08FEF9FEF2CC022FF16C0468112
S11313405781248135814217530744F4A081B18128
S11313509D012F5F3F4F318320838C9326813781FA
S11313602F5F3F4F3783268314C08B01EC01FB01B1
S11313700084F185E02D0995892BE1F6D8011696B4
S11313808D919C911797019617969C938E9316971F
S1131390CE01DF91CF911F910F910895FA01AA27F1
S11313A0283051F1203181F1E8946F936E7F6E5FA4
S11313B07F4F8F4F9F4FAF4FB1E03ED0B4E03CD052
S11313C0670F781F891F9A1FA11D680F791F8A1F35
S11313D0911DA11D6A0F711D811D911DA11D20D09C
S11313E009F468943F912AE0269F11243019305D56
S11313F03193DEF6CF010895462F4770405D419347
S1131400B3E00FD0C9F7F6CF462F4F70405D4A3393
S113141018F0495D31FD4052419302D0A9F7EACF5B
S1131420B4E0A6959795879577956795BA95C9F78A
S113143000976105710508959B01AC010A2E06947D
S11314405795479537952795BA95C9F7620F731F36
S1131450841F951FA01D08952F923F924F925F9273
S11314606F927F928F929F92AF92BF92CF92DF92B0
S1131470EF92FF920F931F93CF93DF93CDB7DEB715
S1131480CA1BDB0B0FB6F894DEBF0FBECDBF0994A9
S11314902A88398848885F846E847D848C849B8400
S11314A0AA84B984C884DF80EE80FD800C811B810E
S11314B0AA81B981CE0FD11D0FB6F894DEBF0FBE3D
S10D14C0CDBFED010895F894FFCFAD
S11314CA00001F0220000D0A5269676874206275C1
S11314DA74746F6E0D000D0A4C656674206275741F
S11314EA746F6E0D000D0A20456C656D656E74206F
S11314FA257500656C656D656E74203100656C65D3
S113150A6D656E74203200656C656D656E7420338A
S113151A00656C656D656E74203400656C656D6577
S113152A6E74203500656C656D656E7420360065D1
S113153A6C656D656E742037002D2D2D2D2D4D454E
S10B154A4E552D2D2D2D2D0011
S9030000FC
