:100000000C9438000C9442000C9442000C94420072
:100010000C9442000C9442000C9442000C94420058
:100020000C9442000C9442000C9442000C94420048
:100030000C9442000C9442000C9442000C94420038
:100040000C9442000C9442000C9442000C94420028
:100050000C9442000C9442000C9442000C94420018
:100060000C9442000C9442000C9442000C94420008
:1000700011241FBECFEFD4E0DEBFCDBF0E944400ED
:100080000C945C000C9400008FEF8ABB8FEF8BBB4D
:100090002FEF85EA9EE0215080409040E1F700C0BC
:1000A00000001BBA2FEF85EA9EE02150804090406F
:0C00B000E1F700C00000EACFF894FFCF99
:00000001FF
