:0200000280007C
:10000000B808002001040800FD030800FD030800F3
:10001000FD030800FD030800FD03080000000000C8
:10002000000000000000000000000000FD030800C8
:10003000FD03080000000000FD030800FD030800A8
:10004000FD030800FD030800FD030800FD03080090
:10005000FD030800FD030800FD030800FD03080080
:1000600035090800FD03080000000000FD0308003A
:10007000FD030800FD030800FD0308000000000068
:1000800000000000FD030800FD030800FD03080058
:10009000FD030800FD030800FD030800FD03080040
:1000A000FD03080000000000FD030800FD03080038
:1000B000FD030800FD030800FD030800FD03080020
:1000C000FD030800FD030800FD030800FD03080010
:1000D000FD030800FD030800FD030800FD03080000
:1000E000FD030800FD030800FD03080049030800A4
:1000F000FD03080010B5054C237833B9044B13B148
:100100000448AFF300800123237010BD34040020A5
:1001100000000000C80B08000C4B43B10C4810B5A0
:100120000C49AFF300800C48036823B910BD0A489E
:10013000036833B97047094B002BF7D0BDE8104076
:100140001847064B002BF5D0184700BF00000000F1
:10015000C80B080038040020C80B0800000000008D
:10016000F0B45618082ED4BF00230123082998BFE5
:10017000082A58D80C46002B55D12C4A136823F076
:100180000103136013692A4B4FF440755D641D6FC2
:1001900025F003051D6703255D605D66A3F500631B
:1001A000244DC3F80C51D3F8005145F40065C3F851
:1001B00000515061002015E01C4B01F1100252016A
:1001C0009D181D4F6F604FF080759D5003EB4113DC
:1001D000D3F81C2242F40002C3F81C2201238B40F6
:1001E00018430131B142E7DD00230DE00F4901EB77
:1001F00043124FF00055C2F8085203F110025201A9
:100200004FF040758D500133A342EFDB074B586030
:100210004FF40061094A51601A6842F001021A6005
:100220000020F0BC70470120FBE700BF00400B40FE
:10023000000E0E402B100010FFFF831F00E100E0B6
:100240004B0103F1402303F53023D3F8103213F4AC
:10025000000F34D00278920442F000524B0103F1B7
:10026000402303F53023C3F808224378082B01D933
:1002700008234370427903791B0443EA0263C2787E
:1002800043EA022382781343490101F1402101F539
:100290003021C1F81432427A037A1B0443EA026324
:1002A000C27943EA022382791343C1F818324378B2
:1002B0001B0443F40003C1F81C32002070470120E6
:1002C000704700004B0103F1402303F53023D3F8BE
:1002D000103213F4000F33D070B44B0103F14023FC
:1002E00003F53023D3F81442D3F81822D3F8085278
:1002F000C5F387450570D3F81052C5F30345457023
:10030000002303E0C618B270120A0133AB4205DACB
:10031000032BF7DCC618B470240AF6E7094B01F189
:10032000100252014FF08070985003EB4111D1F848
:100330001C3243F40003C1F81C32002070BC70472B
:100340000120704700400B4030B585B0214B1D693E
:1003500015F0060F30D015F0020F11D115F0040F73
:1003600013D0022101A81C4B98479DF804101B488C
:100370001B4CA0479DF805101A48A047002410E028
:10038000012101A8144B9847EFE71748144B9847F1
:10039000EBE704AB234413F80A1C1448104B9847AE
:1003A00001349DF805309C42F3DB002101A8104B7D
:1003B000984710480A4B984715F0010F02D00122C8
:1003C000044B9A604FF400620B4BC3F8842105B0D4
:1003D00030BD00BF00400B40C5020800380B0800CC
:1003E000250808004C0B08000C0B0800680B0800DF
:1003F00041020800340B080000E100E0FEE70000C5
:1004000008B5114B114A9A4209D00F4B0F4A03E02D
:1004100011681960043304320D498B42F8D30D4B37
:1004200002E000221A6004330B4A9342F9D30B4BCB
:1004300023F0604323F07F03094A9360094B9847F8
:10044000094B9847FEE700BF00000020C80B0800DA
:100450003404002034040020B80400200000080008
:1004600000ED00E09D090800110508004FF48063CD
:10047000204A136002F5007213601F4B1B6A13F0D1
:10048000807F07D11D4A1C4B1A621B4B9B6E13F0D9
:10049000010FFAD01A4A184B1A62174B9B6E13F4CD
:1004A000803FFAD0144A136B23F0030343F0010397
:1004B0001363114B9B6E13F0080FFAD0114A0E4BC9
:1004C0009A620D4B9B6E13F0020FFAD011220A4B69
:1004D0001A63094B9B6E13F0080FFAD01222064BD9
:1004E0001A63054B9B6E13F0080FFAD0064A074BB0
:1004F0001A607047000A0E4000060E4009083700D7
:1005000009083701013F0D2000BD01050000002052
:1005100010B5174B9847174B9847022201211648F0
:10052000164B98474FF40042154B5A60A3F54563AC
:100530004FF4C0121A601A614FF400221A63114B73
:100540009847012400E0002401344FF4B0530E4AD0
:100550001360203213601C3A13602032136021466E
:100560000A480B4B984743F245339C42ECD1EAE7EB
:100570006D040800A908080077212901610108001D
:10058000501A0E4049080800A44209406C0B0800AC
:100590002508080008B5C8B2014B984708BD00BF40
:1005A000110908002DE9F04107460E46151E02DD2F
:1005B0000A46002104E04FF020080EE0013101322C
:1005C00010780028FAD1A94201DA6D1A00E000255E
:1005D00013F0020F06D14FF0200813F001040AD0E7
:1005E000002410E04FF03008F7E7414638460D4B45
:1005F00098470134013D002DF7DC04E03846094BF3
:1006000098470134013631780029F7D105E0414699
:100610003846044B98470134013D002DF7DC204655
:10062000BDE8F08195050800F0B585B007460C9847
:1006300051B11E460C4613B10A2A12D0002604AD51
:10064000002305F8013D18E030238DF80430002325
:100650008DF805300B9B0A9A01A938461B4CA04720
:1006600029E0002901DB0026E9E74C420126E6E704
:10067000303305F8013DB4FBF2F44CB1B4FBF2F3B6
:1006800002FB1343092BF3DDA0F13A010B44EFE722
:1006900056B10A9B1BB10B9B13F0020F0DD12D23FA
:1006A00005F8013C013D00260B9B0A9A2946384675
:1006B000064CA047304405B0F0BD2D213846044B10
:1006C00098470A9B013B0A93EEE700BFA505080087
:1006D00095050800F0B589B006460C460592002540
:1006E00081E0A21C01238BE0013443F00203227855
:1006F000302AF9D0002206E002EB82025000A1F17C
:100700003002024401342178A1F13000C0B209283E
:10071000F2D9732918D0642922D078292FD05829EA
:100720003CD0752949D063295CD10599081D0590F5
:1007300009788DF81C1000218DF81D1007A930468E
:10074000344FB84705444DE00599081D05900968E8
:1007500021B130462F4FB847054443E02E49F8E712
:100760000599081D05900968612002900193009287
:1007700001230A223046294FB847054432E0059943
:10078000081D0590096861200290019300920023E2
:1007900010223046214FB847054423E00599081D33
:1007A00005900968412002900193009200231022D5
:1007B00030461A4FB847054414E00599081D0590C6
:1007C0000968612002900193009200230A223046BA
:1007D000124FB847054405E0144621783046104BC7
:1007E000984701350134237863B1252BF5D1621C7C
:1007F00063783BB1252BEFD02D2B3FF472AF002354
:10080000144674E716B1336800221A70284609B0FE
:10081000F0BD00BFA5050800780B080029060800F8
:10082000950508000FB400B583B004AA52F8041B64
:1008300001920020034B984703B05DF804EB04B02D
:10084000704700BFD50608000022124B1A6103F55D
:1008500000634FF440221A675A600F4A0123C2F81E
:10086000E4300E4B13600B210D4B19600C2120332B
:10087000196043F245330B490B6020310B601C3982
:100880000B6020310B602C390B6020310B60602332
:100890005360704700060E40004009400107010701
:1008A000A0420940AC420940164B00221A705A700F
:1008B000154B4FF44071596459601A6F186F02401C
:1008C00022F440721A6759664FF48072A3F50063F0
:1008D0001A6103F50073AC21196040F223211962FB
:1008E0004FF40061596040F20221C3F820114FF02B
:1008F000FF31D960E121996004490A6050221A60F1
:10090000704700BF50040020000E0E4000E100E0E0
:10091000074B5B6913F0020F08D0054BD861044BFD
:100920005B6913F4007FFAD0002070470120704704
:1009300000080E4008B5154B5B6913F0E00F03D0BB
:100940004FF4A871114A116013F0010F12D0104832
:100950004278531C594203F03F0301F03F0158BF56
:100960004B4201788B4206D00849886908490A44FD
:1009700090704B7008BD0748074B9847044B597857
:10098000024A92690B449A7008BD00BF00080E40ED
:1009900050040020800B08002508080070B50F4E99
:1009A0000F4D761BB61018BF002405D0013455F842
:1009B000043B9847A642F9D10A4E0B4D00F0F2F8DD
:1009C000761BB61018BF002406D0013455F8043B3E
:1009D0009847A642F9D170BD70BD00BFB00B0800AA
:1009E000B00B0800B80B0800B00B0800024B13B1A5
:1009F000024800F005B87047000000000D0A08002A
:100A0000002301461A46184600F01EB838B50A4CB5
:100A10000A4D641BA4100AD004F18043013B05EB8E
:100A20008305013C55F804399847002CF9D1BDE8FD
:100A3000384000F0C1B800BFC80B0800C40B080064
:100A4000704700BF704700BF2DE9F8432C4D0646A4
:100A5000286898460F469146FFF7F2FF294B1C681D
:100A6000D4F84831002B3ED05A681F2A1CDC02F112
:100A7000010E76B1012103EB8204C4F88890D3F80B
:100A8000880191400843022EC3F88801C4F8088108
:100A900023D00232C3F804E0286843F82270FFF73D
:100AA000D1FF0020BDE8F883174B0BB34FF4C8709B
:100AB000AFF300800346D8B10020D4F848114FF0BE
:100AC000010E586019600246C4F84831C3F8880125
:100AD000C3F88C01002EDCD0CCE7D3F88C010143A5
:100AE000C3F88C11D5E704F5A673C4F84831BBE709
:100AF0002868FFF7A7FF4FF0FF30BDE8F88300BF7D
:100B000030040020A00B08000000000043414E30DC
:100B1000206D6573736167652061727269766564C3
:100B200020696E206E6F6E2D75736564206D61692E
:100B30006C626F780A0D00006D65737361676520E4
:100B400069643A2025640A0D000000006D65737326
:100B50006167652064617461206C656E6774683AD2
:100B60002025640A0D0000002564200069203A2039
:100B700025640A0D00000000286E756C6C290000C9
:100B80004552523A205541525420525820627566BF
:100B90006665722069732066756C6C0A0D00000032
:100BA00008000020F8B500BFF8BC08BC9E4670479E
:100BB000ED09080019010800F8B500BFF8BC08BC31
:080BC0009E467047F500080095
:100BC80000093D000000000000000000F4020020C1
:100BD8005C030020C40300200000000000000000A7
:100BE80000000000000000000000000000000000FD
:100BF80000000000000000000000000000000000ED
:100C080000000000000000000000000000000000DC
:100C180000000000000000000000000000000000CC
:100C280000000000000000000000000000000000BC
:100C380000000000000000000000000000000000AC
:100C4800000000000000000000000000000000009C
:100C5800000000000000000000000000000000008C
:100C6800000000000000000000000000000000007C
:100C780001000000000000000E33CDAB34126DE619
:100C8800ECDE05000B000000000000000000000082
:100C9800000000000000000000000000000000004C
:100CA800000000000000000000000000000000003C
:100CB800000000000000000000000000000000002C
:100CC800000000000000000000000000000000001C
:040FF800940400203D
:040000038000000079
:00000001FF
