:0200000280007C
:10000000D00800209D030800990308009903080008
:1000100099030800990308009903080000000000F4
:10002000000000000000000000000000990308002C
:1000300099030800000000009903080099030800D4
:100040009903080099030800990308009903080020
:100050009903080099030800990308009903080010
:10006000110A080099030800000000009903080025
:100070009903080099030800990308000000000094
:100080000000000099030800990308009903080084
:1000900099030800990308009903080099030800D0
:1000A0009903080000000000990308009903080064
:1000B00099030800990308009903080099030800B0
:1000C00099030800990308009903080099030800A0
:1000D0009903080099030800990308009903080090
:1000E000990308009903080099030800FD0208001D
:1000F0009903080010B5054C237833B9044B13B1AC
:100100000448AFF300800123237010BD3C0400209D
:1001100000000000740C08000C4B43B10C4810B5F3
:100120000C49AFF300800C48036823B910BD0A489E
:10013000036833B97047094B002BF7D0BDE8104076
:100140001847064B002BF5D0184700BF00000000F1
:10015000740C080040040020740C0800000000002B
:10016000074AD2F8003143F02003C2F80031054BB2
:10017000054A5A6004221A6102221A60704700BFC1
:1001800000060E4000000C4080002033014B986DAB
:1001900080B2704700000C40F0B45618082ED4BF4F
:1001A00000230123082998BF082A58D80C46002BA1
:1001B00055D12C4A136823F00103136013692A4BAD
:1001C0004FF440755D641D6F25F003051D67032521
:1001D0005D605D66A3F50063244DC3F80C51D3F850
:1001E000005145F40065C3F800515061002015E04E
:1001F0001C4B01F1100252019D181D4F6F604FF012
:1002000080759D5003EB4113D3F81C2242F4000289
:10021000C3F81C2201238B4018430131B142E7DDB2
:1002200000230DE00F4901EB43124FF00055C2F8D7
:10023000085203F1100252014FF040758D50013306
:10024000A342EFDB074B58604FF40061094A51604D
:100250001A6842F001021A600020F0BC70470120C9
:10026000FBE700BF00400B40000E0E402B100010BB
:10027000FFFF831F00E100E04B0103F1402303F582
:100280003023D3F8103213F4000F33D070B44B0185
:1002900003F1402303F53023D3F81442D3F8182296
:1002A000D3F80852C5F387450570D3F81052C5F34B
:1002B00003454570002303E0C618B270120A0133EB
:1002C000AB4205DA032BF7DCC618B470240AF6E754
:1002D000094B01F1100252014FF08070985003EB6E
:1002E0004111D1F81C3243F40003C1F81C32002044
:1002F00070BC70470120704700400B4010B584B0BF
:100300001A4B1C6914F0060F1DD014F0020F08D10F
:1003100014F0040F0AD0022101A8154B98470023BE
:1003200009E0012101A8124B9847F8E71148124B48
:100330009847F4E701339DF805209342FADB9DF8D6
:100340000430192B0CD014F0010F02D00122074BFE
:100350009A604FF40062094BC3F8842104B010BDC9
:100360009DF80700064B9847EDE700BF00400B40A3
:1003700079020800E80B08006D08080000E100E0C1
:1003800035090800034AD2F8003143F04003C2F8AF
:100390000031704700060E40FEE7000008B5114B23
:1003A000114A9A4209D00F4B0F4A03E011681960B5
:1003B000043304320D498B42F8D30D4B02E0002286
:1003C0001A6004330B4A9342F9D30B4B23F060437A
:1003D00023F07F03094A9360094B9847094B9847DC
:1003E000FEE700BF00000020740C08003C04002061
:1003F0003C040020D00400200000080000ED00E0D4
:10040000790A0800690508004FF48063204A1360E8
:1004100002F5007213601F4B1B6A13F0807F07D137
:100420001D4A1C4B1A621B4B9B6E13F0010FFAD036
:100430001A4A184B1A62174B9B6E13F4803FFAD07E
:10044000144A136B23F0030343F001031363114BAE
:100450009B6E13F0080FFAD0114A0E4B9A620D4BA7
:100460009B6E13F0020FFAD011220A4B1A63094B4C
:100470009B6E13F0080FFAD01222064B1A63054B3D
:100480009B6E13F0080FFAD0064A074B1A607047AC
:10049000000A0E4000060E4009083700090837011F
:1004A000013F0D2000BD0105000000200023044A8B
:1004B0001370044A1360044A1360044A13607047BF
:1004C00058040020600400205C0400206404002024
:1004D00038B51B4B98471B4B1B6898422ADA1A4BBE
:1004E00098471A4B1B68C01A164B5B68984225DD6B
:1004F000154B9847164B1B68C01A124B9B689842C5
:1005000002DD0022134B1A70124B1B7823B10E4BE5
:1005100098470F4B186038BD01220E4B1A700E4CD5
:100520002368134423600D480D4DA84721680D48EA
:10053000A847ECE7044B9847044B186038BD00BF50
:100540008D010800040000207909080064040020DF
:1005500060040020580400205C040020140C0800F3
:100560006D0808001C0C080008B5114B9847114B8A
:100570009847022201211048104B9847104B98478A
:10058000104B9847104B9847104B9847104B984783
:100590004FF400420F4B5A60A3F545634FF4C0126D
:1005A0001A601A614FF400221A630B4B9847FCE75C
:1005B000090408008509080077212901990108002C
:1005C000910808006101080049090800AD0408000D
:1005D00085030800501A0E40D104080008B5C8B2BF
:1005E000014B984708BD00BFED0908002DE9F04117
:1005F00007460E46151E02DD0A46002104E04FF0B4
:1006000020080EE00131013210780028FAD1A94209
:1006100001DA6D1A00E0002513F0020F06D14FF049
:10062000200813F001040AD0002410E04FF0300835
:10063000F7E7414638460D4B98470134013D002D00
:10064000F7DC04E03846094B98470134013631782D
:100650000029F7D105E041463846044B984701345C
:10066000013D002DF7DC2046BDE8F081DD050800E6
:10067000F0B585B007460C9851B11E460C4613B133
:100680000A2A12D0002604AD002305F8013D18E027
:1006900030238DF8043000238DF805300B9B0A9A27
:1006A00001A938461B4CA04729E0002901DB0026A0
:1006B000E9E74C420126E6E7303305F8013DB4FB9B
:1006C000F2F44CB1B4FBF2F302FB1343092BF3DD5C
:1006D000A0F13A010B44EFE756B10A9B1BB10B9B0B
:1006E00013F0020F0DD12D2305F8013C013D00262A
:1006F0000B9B0A9A29463846064CA047304405B061
:10070000F0BD2D213846044B98470A9B013B0A93C4
:10071000EEE700BFED050800DD050800F0B589B083
:1007200006460C460592002581E0A21C01238BE0C1
:10073000013443F002032278302AF9D0002206E087
:1007400002EB82025000A1F1300202440134217810
:10075000A1F13000C0B20928F2D9732918D0642958
:1007600022D078292FD058293CD0752949D0632927
:100770005CD10599081D059009788DF81C100021A1
:100780008DF81D1007A93046344FB84705444DE099
:100790000599081D0590096821B130462F4FB847CB
:1007A000054443E02E49F8E70599081D05900968BE
:1007B000612002900193009201230A223046294FC2
:1007C000B847054432E00599081D05900968612085
:1007D000029001930092002310223046214FB84727
:1007E000054423E00599081D059009684120029001
:1007F000019300920023102230461A4FB847054457
:1008000014E00599081D0590096861200290019384
:10081000009200230A223046124FB847054405E0F3
:10082000144621783046104B98470135013423781F
:1008300063B1252BF5D1621C63783BB1252BEFD03A
:100840002D2B3FF472AF0023144674E716B13368C2
:1008500000221A70284609B0F0BD00BFED0508005F
:10086000240C080071060800DD0508000FB400B56F
:1008700083B004AA52F8041B01920020034B98474E
:1008800003B05DF804EB04B0704700BF1D0708001B
:10089000184AD2F8003143F01003C2F80031164B69
:1008A0005A6842F440225A601A6F42F440221A6792
:1008B000124BD3F8E42042F0FC02C3F8E420D3F852
:1008C000E420C3F8E4200E4A1A60602199600B20EE
:1008D0000C4A10600C202032106043F245320A4866
:1008E00002602030026028380260203002605960C7
:1008F000704700BF00060E4000120E400040094045
:1009000001070107A0420940AC42094040F262538E
:10091000984200DD184640F24E23984201DC40F236
:100920004F20C0F54D500530014B1860704700BF97
:10093000A442094008B5800000F5FB70014B9847C0
:1009400008BD00BF0D090800094A136943F00063A0
:100950001361084B5A6842F003025A601A6842F069
:1009600001021A601A6842F004021A60704700BF60
:1009700000060E4000000840014B1869704700BF98
:1009800000000840164B00221A705A70154B4FF4A5
:100990004071596459601A6F186F024022F4407216
:1009A0001A6759664FF48072A3F500631A6103F564
:1009B0000073AC21196040F2232119624FF40061E9
:1009C000596040F20221C3F820114FF0FF31D96085
:1009D000E121996004490A6050221A60704700BF03
:1009E00068040020000E0E4000E100E0074B5B6948
:1009F00013F0020F08D0054BD861044B5B6913F468
:100A0000007FFAD0002070470120704700080E4098
:100A100008B5154B5B6913F0E00F03D04FF4A871D4
:100A2000114A116013F0010F12D010484278531C84
:100A3000594203F03F0301F03F0158BF4B42017898
:100A40008B4206D00849886908490A4490704B7067
:100A500008BD0748074B9847044B5978024A9269EA
:100A60000B449A7008BD00BF00080E4068040020C7
:100A70002C0C08006D08080070B50F4E0F4D761B4A
:100A8000B61018BF002405D0013455F8043B984730
:100A9000A642F9D10A4E0B4D00F0DAF8761BB610DB
:100AA00018BF002406D0013455F8043B9847A642ED
:100AB000F9D170BD70BD00BF5C0C08005C0C080073
:100AC000640C08005C0C0800024B13B1024800F0F3
:100AD00005B8704700000000E90A0800002301463D
:100AE0001A46184600F01EB838B50A4C0A4D641B69
:100AF000A4100AD004F18043013B05EB8305013CBF
:100B000055F804399847002CF9D1BDE8384000F079
:100B1000A9B800BF740C0800700C0800704700BF33
:100B2000704700BF2DE9F8432C4D064628689846CB
:100B30000F469146FFF7F2FF294B1C68D4F8483165
:100B4000002B3ED05A681F2A1CDC02F1010E76B140
:100B5000012103EB8204C4F88890D3F88801914006
:100B60000843022EC3F88801C4F8088123D002325A
:100B7000C3F804E0286843F82270FFF7D1FF002093
:100B8000BDE8F883174B0BB34FF4C870AFF3008088
:100B90000346D8B10020D4F848114FF0010E586038
:100BA00019600246C4F84831C3F88801C3F88C01C3
:100BB000002EDCD0CCE7D3F88C010143C3F88C11B4
:100BC000D5E704F5A673C4F84831BBE72868FFF7FA
:100BD000A7FF4FF0FF30BDE8F88300BF38040020C6
:100BE0004C0C08000000000043414E30206D65733E
:100BF00073616765206172726976656420696E2031
:100C00006E6F6E2D75736564206D61696C626F78AF
:100C10000A0D000053636F72653A20002564200DB1
:100C2000200A0000286E756C6C2900004552523A6B
:100C300020554152542052582062756666657220D4
:100C400069732066756C6C0A0D00000010000020AE
:100C5000F8B500BFF8BC08BC9E467047C90A08003A
:100C600019010800F8B500BFF8BC08BC9E467047E3
:040C7000F500080083
:100C740000093D00900100008A660000BD010500E6
:100C840000000000FC02002064030020CC030020CC
:100C94000000000000000000000000000000000050
:100CA4000000000000000000000000000000000040
:100CB4000000000000000000000000000000000030
:100CC4000000000000000000000000000000000020
:100CD4000000000000000000000000000000000010
:100CE4000000000000000000000000000000000000
:100CF40000000000000000000000000000000000F0
:100D040000000000000000000000000000000000DF
:100D140000000000000000000000000000000000CF
:100D240000000000000000000100000000000000BE
:100D34000E33CDAB34126DE6ECDE05000B00000083
:100D4400000000000000000000000000000000009F
:100D5400000000000000000000000000000000008F
:100D6400000000000000000000000000000000007F
:100D7400000000000000000000000000000000006F
:0C10A4000000000000000000AC04002070
:040000038000000079
:00000001FF
